{
  "_format": "hh-sol-artifact-1",
  "contractName": "MyERC721",
  "sourceName": "contracts/MyERC20.sol",
  "abi": [
    {
      "inputs": [
        {
          "internalType": "string",
          "name": "name",
          "type": "string"
        },
        {
          "internalType": "string",
          "name": "symbol",
          "type": "string"
        }
      ],
      "stateMutability": "nonpayable",
      "type": "constructor"
    },
    {
      "anonymous": false,
      "inputs": [
        {
          "indexed": true,
          "internalType": "address",
          "name": "owner",
          "type": "address"
        },
        {
          "indexed": true,
          "internalType": "address",
          "name": "approved",
          "type": "address"
        },
        {
          "indexed": true,
          "internalType": "uint256",
          "name": "tokenId",
          "type": "uint256"
        }
      ],
      "name": "Approval",
      "type": "event"
    },
    {
      "anonymous": false,
      "inputs": [
        {
          "indexed": true,
          "internalType": "address",
          "name": "owner",
          "type": "address"
        },
        {
          "indexed": true,
          "internalType": "address",
          "name": "operator",
          "type": "address"
        },
        {
          "indexed": false,
          "internalType": "bool",
          "name": "approved",
          "type": "bool"
        }
      ],
      "name": "ApprovalForAll",
      "type": "event"
    },
    {
      "anonymous": false,
      "inputs": [
        {
          "indexed": true,
          "internalType": "address",
          "name": "from",
          "type": "address"
        },
        {
          "indexed": true,
          "internalType": "address",
          "name": "to",
          "type": "address"
        },
        {
          "indexed": true,
          "internalType": "uint256",
          "name": "tokenId",
          "type": "uint256"
        }
      ],
      "name": "Transfer",
      "type": "event"
    },
    {
      "inputs": [
        {
          "internalType": "address",
          "name": "to",
          "type": "address"
        },
        {
          "internalType": "uint256",
          "name": "tokenId",
          "type": "uint256"
        }
      ],
      "name": "approve",
      "outputs": [],
      "stateMutability": "nonpayable",
      "type": "function"
    },
    {
      "inputs": [
        {
          "internalType": "address",
          "name": "owner",
          "type": "address"
        }
      ],
      "name": "balanceOf",
      "outputs": [
        {
          "internalType": "uint256",
          "name": "",
          "type": "uint256"
        }
      ],
      "stateMutability": "view",
      "type": "function"
    },
    {
      "inputs": [
        {
          "internalType": "address",
          "name": "from",
          "type": "address"
        },
        {
          "internalType": "address",
          "name": "to",
          "type": "address"
        },
        {
          "internalType": "uint32",
          "name": "num",
          "type": "uint32"
        }
      ],
      "name": "bonus",
      "outputs": [],
      "stateMutability": "nonpayable",
      "type": "function"
    },
    {
      "inputs": [
        {
          "internalType": "uint256",
          "name": "tokenId",
          "type": "uint256"
        }
      ],
      "name": "getApproved",
      "outputs": [
        {
          "internalType": "address",
          "name": "",
          "type": "address"
        }
      ],
      "stateMutability": "view",
      "type": "function"
    },
    {
      "inputs": [
        {
          "internalType": "address",
          "name": "owner",
          "type": "address"
        },
        {
          "internalType": "address",
          "name": "operator",
          "type": "address"
        }
      ],
      "name": "isApprovedForAll",
      "outputs": [
        {
          "internalType": "bool",
          "name": "",
          "type": "bool"
        }
      ],
      "stateMutability": "view",
      "type": "function"
    },
    {
      "inputs": [],
      "name": "name",
      "outputs": [
        {
          "internalType": "string",
          "name": "",
          "type": "string"
        }
      ],
      "stateMutability": "view",
      "type": "function"
    },
    {
      "inputs": [
        {
          "internalType": "uint256",
          "name": "tokenId",
          "type": "uint256"
        }
      ],
      "name": "ownerOf",
      "outputs": [
        {
          "internalType": "address",
          "name": "",
          "type": "address"
        }
      ],
      "stateMutability": "view",
      "type": "function"
    },
    {
      "inputs": [
        {
          "internalType": "address",
          "name": "from",
          "type": "address"
        },
        {
          "internalType": "address",
          "name": "to",
          "type": "address"
        },
        {
          "internalType": "uint256",
          "name": "tokenId",
          "type": "uint256"
        }
      ],
      "name": "safeTransferFrom",
      "outputs": [],
      "stateMutability": "nonpayable",
      "type": "function"
    },
    {
      "inputs": [
        {
          "internalType": "address",
          "name": "from",
          "type": "address"
        },
        {
          "internalType": "address",
          "name": "to",
          "type": "address"
        },
        {
          "internalType": "uint256",
          "name": "tokenId",
          "type": "uint256"
        },
        {
          "internalType": "bytes",
          "name": "data",
          "type": "bytes"
        }
      ],
      "name": "safeTransferFrom",
      "outputs": [],
      "stateMutability": "nonpayable",
      "type": "function"
    },
    {
      "inputs": [
        {
          "internalType": "address",
          "name": "operator",
          "type": "address"
        },
        {
          "internalType": "bool",
          "name": "approved",
          "type": "bool"
        }
      ],
      "name": "setApprovalForAll",
      "outputs": [],
      "stateMutability": "nonpayable",
      "type": "function"
    },
    {
      "inputs": [
        {
          "internalType": "bytes4",
          "name": "interfaceId",
          "type": "bytes4"
        }
      ],
      "name": "supportsInterface",
      "outputs": [
        {
          "internalType": "bool",
          "name": "",
          "type": "bool"
        }
      ],
      "stateMutability": "view",
      "type": "function"
    },
    {
      "inputs": [],
      "name": "symbol",
      "outputs": [
        {
          "internalType": "string",
          "name": "",
          "type": "string"
        }
      ],
      "stateMutability": "view",
      "type": "function"
    },
    {
      "inputs": [
        {
          "internalType": "uint256",
          "name": "tokenId",
          "type": "uint256"
        }
      ],
      "name": "tokenURI",
      "outputs": [
        {
          "internalType": "string",
          "name": "",
          "type": "string"
        }
      ],
      "stateMutability": "view",
      "type": "function"
    },
    {
      "inputs": [
        {
          "internalType": "address",
          "name": "from",
          "type": "address"
        },
        {
          "internalType": "address",
          "name": "to",
          "type": "address"
        },
        {
          "internalType": "uint256",
          "name": "tokenId",
          "type": "uint256"
        }
      ],
      "name": "transferFrom",
      "outputs": [],
      "stateMutability": "nonpayable",
      "type": "function"
    }
  ],
  "bytecode": "0x60806040523480156200001157600080fd5b5060405162002aac38038062002aac833981810160405281019062000037919062000573565b818181600090805190602001906200005192919062000326565b5080600190805190602001906200006a92919062000326565b50505060005b60148163ffffffff1611620000ad5762000097338263ffffffff16620000b660201b60201c565b8080620000a49062000637565b91505062000070565b5050506200082a565b600073ffffffffffffffffffffffffffffffffffffffff168273ffffffffffffffffffffffffffffffffffffffff16141562000129576040517f08c379a00000000000000000000000000000000000000000000000000000000081526004016200012090620006ca565b60405180910390fd5b6200013a81620002b060201b60201c565b156200017d576040517f08c379a000000000000000000000000000000000000000000000000000000000815260040162000174906200073c565b60405180910390fd5b62000191600083836200031c60201b60201c565b6001600360008473ffffffffffffffffffffffffffffffffffffffff1673ffffffffffffffffffffffffffffffffffffffff1681526020019081526020016000206000828254620001e3919062000768565b92505081905550816002600083815260200190815260200160002060006101000a81548173ffffffffffffffffffffffffffffffffffffffff021916908373ffffffffffffffffffffffffffffffffffffffff160217905550808273ffffffffffffffffffffffffffffffffffffffff16600073ffffffffffffffffffffffffffffffffffffffff167fddf252ad1be2c89b69c2b068fc378daa952ba7f163c4a11628f55a4df523b3ef60405160405180910390a4620002ac600083836200032160201b60201c565b5050565b60008073ffffffffffffffffffffffffffffffffffffffff166002600084815260200190815260200160002060009054906101000a900473ffffffffffffffffffffffffffffffffffffffff1673ffffffffffffffffffffffffffffffffffffffff1614159050919050565b505050565b505050565b8280546200033490620007f4565b90600052602060002090601f016020900481019282620003585760008555620003a4565b82601f106200037357805160ff1916838001178555620003a4565b82800160010185558215620003a4579182015b82811115620003a357825182559160200191906001019062000386565b5b509050620003b39190620003b7565b5090565b5b80821115620003d2576000816000905550600101620003b8565b5090565b6000604051905090565b600080fd5b600080fd5b600080fd5b600080fd5b6000601f19601f8301169050919050565b7f4e487b7100000000000000000000000000000000000000000000000000000000600052604160045260246000fd5b6200043f82620003f4565b810181811067ffffffffffffffff8211171562000461576200046062000405565b5b80604052505050565b600062000476620003d6565b905062000484828262000434565b919050565b600067ffffffffffffffff821115620004a757620004a662000405565b5b620004b282620003f4565b9050602081019050919050565b60005b83811015620004df578082015181840152602081019050620004c2565b83811115620004ef576000848401525b50505050565b60006200050c620005068462000489565b6200046a565b9050828152602081018484840111156200052b576200052a620003ef565b5b62000538848285620004bf565b509392505050565b600082601f830112620005585762000557620003ea565b5b81516200056a848260208601620004f5565b91505092915050565b600080604083850312156200058d576200058c620003e0565b5b600083015167ffffffffffffffff811115620005ae57620005ad620003e5565b5b620005bc8582860162000540565b925050602083015167ffffffffffffffff811115620005e057620005df620003e5565b5b620005ee8582860162000540565b9150509250929050565b7f4e487b7100000000000000000000000000000000000000000000000000000000600052601160045260246000fd5b600063ffffffff82169050919050565b6000620006448262000627565b915063ffffffff8214156200065e576200065d620005f8565b5b600182019050919050565b600082825260208201905092915050565b7f4552433732313a206d696e7420746f20746865207a65726f2061646472657373600082015250565b6000620006b260208362000669565b9150620006bf826200067a565b602082019050919050565b60006020820190508181036000830152620006e581620006a3565b9050919050565b7f4552433732313a20746f6b656e20616c7265616479206d696e74656400000000600082015250565b600062000724601c8362000669565b91506200073182620006ec565b602082019050919050565b60006020820190508181036000830152620007578162000715565b9050919050565b6000819050919050565b600062000775826200075e565b915062000782836200075e565b9250827fffffffffffffffffffffffffffffffffffffffffffffffffffffffffffffffff03821115620007ba57620007b9620005f8565b5b828201905092915050565b7f4e487b7100000000000000000000000000000000000000000000000000000000600052602260045260246000fd5b600060028204905060018216806200080d57607f821691505b60208210811415620008245762000823620007c5565b5b50919050565b612272806200083a6000396000f3fe608060405234801561001057600080fd5b50600436106100ea5760003560e01c80636352211e1161008c578063a22cb46511610066578063a22cb4651461025b578063b88d4fde14610277578063c87b56dd14610293578063e985e9c5146102c3576100ea565b80636352211e146101dd57806370a082311461020d57806395d89b411461023d576100ea565b8063095ea7b3116100c8578063095ea7b31461016d57806323b872dd146101895780633c49761e146101a557806342842e0e146101c1576100ea565b806301ffc9a7146100ef57806306fdde031461011f578063081812fc1461013d575b600080fd5b6101096004803603810190610104919061141a565b6102f3565b6040516101169190611462565b60405180910390f35b6101276103d5565b6040516101349190611516565b60405180910390f35b6101576004803603810190610152919061156e565b610467565b60405161016491906115dc565b60405180910390f35b61018760048036038101906101829190611623565b6104ad565b005b6101a3600480360381019061019e9190611663565b6105c5565b005b6101bf60048036038101906101ba91906116f2565b610625565b005b6101db60048036038101906101d69190611663565b61063b565b005b6101f760048036038101906101f2919061156e565b61065b565b60405161020491906115dc565b60405180910390f35b61022760048036038101906102229190611745565b61070d565b6040516102349190611781565b60405180910390f35b6102456107c5565b6040516102529190611516565b60405180910390f35b610275600480360381019061027091906117c8565b610857565b005b610291600480360381019061028c919061193d565b61086d565b005b6102ad60048036038101906102a8919061156e565b6108cf565b6040516102ba9190611516565b60405180910390f35b6102dd60048036038101906102d891906119c0565b610937565b6040516102ea9190611462565b60405180910390f35b60007f80ac58cd000000000000000000000000000000000000000000000000000000007bffffffffffffffffffffffffffffffffffffffffffffffffffffffff1916827bffffffffffffffffffffffffffffffffffffffffffffffffffffffff191614806103be57507f5b5e139f000000000000000000000000000000000000000000000000000000007bffffffffffffffffffffffffffffffffffffffffffffffffffffffff1916827bffffffffffffffffffffffffffffffffffffffffffffffffffffffff1916145b806103ce57506103cd826109cb565b5b9050919050565b6060600080546103e490611a2f565b80601f016020809104026020016040519081016040528092919081815260200182805461041090611a2f565b801561045d5780601f106104325761010080835404028352916020019161045d565b820191906000526020600020905b81548152906001019060200180831161044057829003601f168201915b5050505050905090565b600061047282610a35565b6004600083815260200190815260200160002060009054906101000a900473ffffffffffffffffffffffffffffffffffffffff169050919050565b60006104b88261065b565b90508073ffffffffffffffffffffffffffffffffffffffff168373ffffffffffffffffffffffffffffffffffffffff161415610529576040517f08c379a000000000000000000000000000000000000000000000000000000000815260040161052090611ad3565b60405180910390fd5b8073ffffffffffffffffffffffffffffffffffffffff16610548610a80565b73ffffffffffffffffffffffffffffffffffffffff161480610577575061057681610571610a80565b610937565b5b6105b6576040517f08c379a00000000000000000000000000000000000000000000000000000000081526004016105ad90611b65565b60405180910390fd5b6105c08383610a88565b505050565b6105d66105d0610a80565b82610b41565b610615576040517f08c379a000000000000000000000000000000000000000000000000000000000815260040161060c90611bf7565b60405180910390fd5b610620838383610bd6565b505050565b61063683838363ffffffff16610bd6565b505050565b6106568383836040518060200160405280600081525061086d565b505050565b6000806002600084815260200190815260200160002060009054906101000a900473ffffffffffffffffffffffffffffffffffffffff169050600073ffffffffffffffffffffffffffffffffffffffff168173ffffffffffffffffffffffffffffffffffffffff161415610704576040517f08c379a00000000000000000000000000000000000000000000000000000000081526004016106fb90611c63565b60405180910390fd5b80915050919050565b60008073ffffffffffffffffffffffffffffffffffffffff168273ffffffffffffffffffffffffffffffffffffffff16141561077e576040517f08c379a000000000000000000000000000000000000000000000000000000000815260040161077590611cf5565b60405180910390fd5b600360008373ffffffffffffffffffffffffffffffffffffffff1673ffffffffffffffffffffffffffffffffffffffff168152602001908152602001600020549050919050565b6060600180546107d490611a2f565b80601f016020809104026020016040519081016040528092919081815260200182805461080090611a2f565b801561084d5780601f106108225761010080835404028352916020019161084d565b820191906000526020600020905b81548152906001019060200180831161083057829003601f168201915b5050505050905090565b610869610862610a80565b8383610e3d565b5050565b61087e610878610a80565b83610b41565b6108bd576040517f08c379a00000000000000000000000000000000000000000000000000000000081526004016108b490611bf7565b60405180910390fd5b6108c984848484610faa565b50505050565b60606108da82610a35565b60006108e4611006565b90506000815111610904576040518060200160405280600081525061092f565b8061090e8461101d565b60405160200161091f929190611d51565b6040516020818303038152906040525b915050919050565b6000600560008473ffffffffffffffffffffffffffffffffffffffff1673ffffffffffffffffffffffffffffffffffffffff16815260200190815260200160002060008373ffffffffffffffffffffffffffffffffffffffff1673ffffffffffffffffffffffffffffffffffffffff16815260200190815260200160002060009054906101000a900460ff16905092915050565b60007f01ffc9a7000000000000000000000000000000000000000000000000000000007bffffffffffffffffffffffffffffffffffffffffffffffffffffffff1916827bffffffffffffffffffffffffffffffffffffffffffffffffffffffff1916149050919050565b610a3e8161117e565b610a7d576040517f08c379a0000000000000000000000000000000000000000000000000000000008152600401610a7490611c63565b60405180910390fd5b50565b600033905090565b816004600083815260200190815260200160002060006101000a81548173ffffffffffffffffffffffffffffffffffffffff021916908373ffffffffffffffffffffffffffffffffffffffff160217905550808273ffffffffffffffffffffffffffffffffffffffff16610afb8361065b565b73ffffffffffffffffffffffffffffffffffffffff167f8c5be1e5ebec7d5bd14f71427d1e84f3dd0314c0f7b2291e5b200ac8c7c3b92560405160405180910390a45050565b600080610b4d8361065b565b90508073ffffffffffffffffffffffffffffffffffffffff168473ffffffffffffffffffffffffffffffffffffffff161480610b8f5750610b8e8185610937565b5b80610bcd57508373ffffffffffffffffffffffffffffffffffffffff16610bb584610467565b73ffffffffffffffffffffffffffffffffffffffff16145b91505092915050565b8273ffffffffffffffffffffffffffffffffffffffff16610bf68261065b565b73ffffffffffffffffffffffffffffffffffffffff1614610c4c576040517f08c379a0000000000000000000000000000000000000000000000000000000008152600401610c4390611de7565b60405180910390fd5b600073ffffffffffffffffffffffffffffffffffffffff168273ffffffffffffffffffffffffffffffffffffffff161415610cbc576040517f08c379a0000000000000000000000000000000000000000000000000000000008152600401610cb390611e79565b60405180910390fd5b610cc78383836111ea565b610cd2600082610a88565b6001600360008573ffffffffffffffffffffffffffffffffffffffff1673ffffffffffffffffffffffffffffffffffffffff1681526020019081526020016000206000828254610d229190611ec8565b925050819055506001600360008473ffffffffffffffffffffffffffffffffffffffff1673ffffffffffffffffffffffffffffffffffffffff1681526020019081526020016000206000828254610d799190611efc565b92505081905550816002600083815260200190815260200160002060006101000a81548173ffffffffffffffffffffffffffffffffffffffff021916908373ffffffffffffffffffffffffffffffffffffffff160217905550808273ffffffffffffffffffffffffffffffffffffffff168473ffffffffffffffffffffffffffffffffffffffff167fddf252ad1be2c89b69c2b068fc378daa952ba7f163c4a11628f55a4df523b3ef60405160405180910390a4610e388383836111ef565b505050565b8173ffffffffffffffffffffffffffffffffffffffff168373ffffffffffffffffffffffffffffffffffffffff161415610eac576040517f08c379a0000000000000000000000000000000000000000000000000000000008152600401610ea390611f9e565b60405180910390fd5b80600560008573ffffffffffffffffffffffffffffffffffffffff1673ffffffffffffffffffffffffffffffffffffffff16815260200190815260200160002060008473ffffffffffffffffffffffffffffffffffffffff1673ffffffffffffffffffffffffffffffffffffffff16815260200190815260200160002060006101000a81548160ff0219169083151502179055508173ffffffffffffffffffffffffffffffffffffffff168373ffffffffffffffffffffffffffffffffffffffff167f17307eab39ab6107e8899845ad3d59bd9653f200f220920489ca2b5937696c3183604051610f9d9190611462565b60405180910390a3505050565b610fb5848484610bd6565b610fc1848484846111f4565b611000576040517f08c379a0000000000000000000000000000000000000000000000000000000008152600401610ff790612030565b60405180910390fd5b50505050565b606060405180602001604052806000815250905090565b60606000821415611065576040518060400160405280600181526020017f30000000000000000000000000000000000000000000000000000000000000008152509050611179565b600082905060005b6000821461109757808061108090612050565b915050600a8261109091906120c8565b915061106d565b60008167ffffffffffffffff8111156110b3576110b2611812565b5b6040519080825280601f01601f1916602001820160405280156110e55781602001600182028036833780820191505090505b5090505b60008514611172576001826110fe9190611ec8565b9150600a8561110d91906120f9565b60306111199190611efc565b60f81b81838151811061112f5761112e61212a565b5b60200101907effffffffffffffffffffffffffffffffffffffffffffffffffffffffffffff1916908160001a905350600a8561116b91906120c8565b94506110e9565b8093505050505b919050565b60008073ffffffffffffffffffffffffffffffffffffffff166002600084815260200190815260200160002060009054906101000a900473ffffffffffffffffffffffffffffffffffffffff1673ffffffffffffffffffffffffffffffffffffffff1614159050919050565b505050565b505050565b60006112158473ffffffffffffffffffffffffffffffffffffffff1661138b565b1561137e578373ffffffffffffffffffffffffffffffffffffffff1663150b7a0261123e610a80565b8786866040518563ffffffff1660e01b815260040161126094939291906121ae565b602060405180830381600087803b15801561127a57600080fd5b505af19250505080156112ab57506040513d601f19601f820116820180604052508101906112a8919061220f565b60015b61132e573d80600081146112db576040519150601f19603f3d011682016040523d82523d6000602084013e6112e0565b606091505b50600081511415611326576040517f08c379a000000000000000000000000000000000000000000000000000000000815260040161131d90612030565b60405180910390fd5b805181602001fd5b63150b7a0260e01b7bffffffffffffffffffffffffffffffffffffffffffffffffffffffff1916817bffffffffffffffffffffffffffffffffffffffffffffffffffffffff191614915050611383565b600190505b949350505050565b6000808273ffffffffffffffffffffffffffffffffffffffff163b119050919050565b6000604051905090565b600080fd5b600080fd5b60007fffffffff0000000000000000000000000000000000000000000000000000000082169050919050565b6113f7816113c2565b811461140257600080fd5b50565b600081359050611414816113ee565b92915050565b6000602082840312156114305761142f6113b8565b5b600061143e84828501611405565b91505092915050565b60008115159050919050565b61145c81611447565b82525050565b60006020820190506114776000830184611453565b92915050565b600081519050919050565b600082825260208201905092915050565b60005b838110156114b757808201518184015260208101905061149c565b838111156114c6576000848401525b50505050565b6000601f19601f8301169050919050565b60006114e88261147d565b6114f28185611488565b9350611502818560208601611499565b61150b816114cc565b840191505092915050565b6000602082019050818103600083015261153081846114dd565b905092915050565b6000819050919050565b61154b81611538565b811461155657600080fd5b50565b60008135905061156881611542565b92915050565b600060208284031215611584576115836113b8565b5b600061159284828501611559565b91505092915050565b600073ffffffffffffffffffffffffffffffffffffffff82169050919050565b60006115c68261159b565b9050919050565b6115d6816115bb565b82525050565b60006020820190506115f160008301846115cd565b92915050565b611600816115bb565b811461160b57600080fd5b50565b60008135905061161d816115f7565b92915050565b6000806040838503121561163a576116396113b8565b5b60006116488582860161160e565b925050602061165985828601611559565b9150509250929050565b60008060006060848603121561167c5761167b6113b8565b5b600061168a8682870161160e565b935050602061169b8682870161160e565b92505060406116ac86828701611559565b9150509250925092565b600063ffffffff82169050919050565b6116cf816116b6565b81146116da57600080fd5b50565b6000813590506116ec816116c6565b92915050565b60008060006060848603121561170b5761170a6113b8565b5b60006117198682870161160e565b935050602061172a8682870161160e565b925050604061173b868287016116dd565b9150509250925092565b60006020828403121561175b5761175a6113b8565b5b60006117698482850161160e565b91505092915050565b61177b81611538565b82525050565b60006020820190506117966000830184611772565b92915050565b6117a581611447565b81146117b057600080fd5b50565b6000813590506117c28161179c565b92915050565b600080604083850312156117df576117de6113b8565b5b60006117ed8582860161160e565b92505060206117fe858286016117b3565b9150509250929050565b600080fd5b600080fd5b7f4e487b7100000000000000000000000000000000000000000000000000000000600052604160045260246000fd5b61184a826114cc565b810181811067ffffffffffffffff8211171561186957611868611812565b5b80604052505050565b600061187c6113ae565b90506118888282611841565b919050565b600067ffffffffffffffff8211156118a8576118a7611812565b5b6118b1826114cc565b9050602081019050919050565b82818337600083830152505050565b60006118e06118db8461188d565b611872565b9050828152602081018484840111156118fc576118fb61180d565b5b6119078482856118be565b509392505050565b600082601f83011261192457611923611808565b5b81356119348482602086016118cd565b91505092915050565b60008060008060808587031215611957576119566113b8565b5b60006119658782880161160e565b94505060206119768782880161160e565b935050604061198787828801611559565b925050606085013567ffffffffffffffff8111156119a8576119a76113bd565b5b6119b48782880161190f565b91505092959194509250565b600080604083850312156119d7576119d66113b8565b5b60006119e58582860161160e565b92505060206119f68582860161160e565b9150509250929050565b7f4e487b7100000000000000000000000000000000000000000000000000000000600052602260045260246000fd5b60006002820490506001821680611a4757607f821691505b60208210811415611a5b57611a5a611a00565b5b50919050565b7f4552433732313a20617070726f76616c20746f2063757272656e74206f776e6560008201527f7200000000000000000000000000000000000000000000000000000000000000602082015250565b6000611abd602183611488565b9150611ac882611a61565b604082019050919050565b60006020820190508181036000830152611aec81611ab0565b9050919050565b7f4552433732313a20617070726f76652063616c6c6572206973206e6f7420746f60008201527f6b656e206f776e6572206e6f7220617070726f76656420666f7220616c6c0000602082015250565b6000611b4f603e83611488565b9150611b5a82611af3565b604082019050919050565b60006020820190508181036000830152611b7e81611b42565b9050919050565b7f4552433732313a2063616c6c6572206973206e6f7420746f6b656e206f776e6560008201527f72206e6f7220617070726f766564000000000000000000000000000000000000602082015250565b6000611be1602e83611488565b9150611bec82611b85565b604082019050919050565b60006020820190508181036000830152611c1081611bd4565b9050919050565b7f4552433732313a20696e76616c696420746f6b656e2049440000000000000000600082015250565b6000611c4d601883611488565b9150611c5882611c17565b602082019050919050565b60006020820190508181036000830152611c7c81611c40565b9050919050565b7f4552433732313a2061646472657373207a65726f206973206e6f74206120766160008201527f6c6964206f776e65720000000000000000000000000000000000000000000000602082015250565b6000611cdf602983611488565b9150611cea82611c83565b604082019050919050565b60006020820190508181036000830152611d0e81611cd2565b9050919050565b600081905092915050565b6000611d2b8261147d565b611d358185611d15565b9350611d45818560208601611499565b80840191505092915050565b6000611d5d8285611d20565b9150611d698284611d20565b91508190509392505050565b7f4552433732313a207472616e736665722066726f6d20696e636f72726563742060008201527f6f776e6572000000000000000000000000000000000000000000000000000000602082015250565b6000611dd1602583611488565b9150611ddc82611d75565b604082019050919050565b60006020820190508181036000830152611e0081611dc4565b9050919050565b7f4552433732313a207472616e7366657220746f20746865207a65726f2061646460008201527f7265737300000000000000000000000000000000000000000000000000000000602082015250565b6000611e63602483611488565b9150611e6e82611e07565b604082019050919050565b60006020820190508181036000830152611e9281611e56565b9050919050565b7f4e487b7100000000000000000000000000000000000000000000000000000000600052601160045260246000fd5b6000611ed382611538565b9150611ede83611538565b925082821015611ef157611ef0611e99565b5b828203905092915050565b6000611f0782611538565b9150611f1283611538565b9250827fffffffffffffffffffffffffffffffffffffffffffffffffffffffffffffffff03821115611f4757611f46611e99565b5b828201905092915050565b7f4552433732313a20617070726f766520746f2063616c6c657200000000000000600082015250565b6000611f88601983611488565b9150611f9382611f52565b602082019050919050565b60006020820190508181036000830152611fb781611f7b565b9050919050565b7f4552433732313a207472616e7366657220746f206e6f6e20455243373231526560008201527f63656976657220696d706c656d656e7465720000000000000000000000000000602082015250565b600061201a603283611488565b915061202582611fbe565b604082019050919050565b600060208201905081810360008301526120498161200d565b9050919050565b600061205b82611538565b91507fffffffffffffffffffffffffffffffffffffffffffffffffffffffffffffffff82141561208e5761208d611e99565b5b600182019050919050565b7f4e487b7100000000000000000000000000000000000000000000000000000000600052601260045260246000fd5b60006120d382611538565b91506120de83611538565b9250826120ee576120ed612099565b5b828204905092915050565b600061210482611538565b915061210f83611538565b92508261211f5761211e612099565b5b828206905092915050565b7f4e487b7100000000000000000000000000000000000000000000000000000000600052603260045260246000fd5b600081519050919050565b600082825260208201905092915050565b600061218082612159565b61218a8185612164565b935061219a818560208601611499565b6121a3816114cc565b840191505092915050565b60006080820190506121c360008301876115cd565b6121d060208301866115cd565b6121dd6040830185611772565b81810360608301526121ef8184612175565b905095945050505050565b600081519050612209816113ee565b92915050565b600060208284031215612225576122246113b8565b5b6000612233848285016121fa565b9150509291505056fea264697066735822122059678e7639527f87f201acd893c040547f93a62b93df89b59bf7f58f85d32ad064736f6c63430008090033",
  "linkReferences": {},
  "deployedLinkReferences": {}
}