{
  "_format": "hh-sol-artifact-1",
  "contractName": "StudentSocietyDAO",
  "sourceName": "contracts/StudentSocietyDAO.sol",
  "abi": [
    {
      "inputs": [],
      "stateMutability": "nonpayable",
      "type": "constructor"
    },
    {
      "anonymous": false,
      "inputs": [
        {
          "indexed": false,
          "internalType": "uint32",
          "name": "proposalIndex",
          "type": "uint32"
        }
      ],
      "name": "ProposalInitiated",
      "type": "event"
    },
    {
      "inputs": [],
      "name": "PROPOSAL_AMOUNT",
      "outputs": [
        {
          "internalType": "uint256",
          "name": "",
          "type": "uint256"
        }
      ],
      "stateMutability": "view",
      "type": "function"
    },
    {
      "inputs": [],
      "name": "VOTE_AMOUNT",
      "outputs": [
        {
          "internalType": "uint256",
          "name": "",
          "type": "uint256"
        }
      ],
      "stateMutability": "view",
      "type": "function"
    },
    {
      "inputs": [],
      "name": "check",
      "outputs": [],
      "stateMutability": "nonpayable",
      "type": "function"
    },
    {
      "inputs": [
        {
          "internalType": "address",
          "name": "account",
          "type": "address"
        }
      ],
      "name": "getMemberCount",
      "outputs": [
        {
          "internalType": "uint32",
          "name": "",
          "type": "uint32"
        }
      ],
      "stateMutability": "nonpayable",
      "type": "function"
    },
    {
      "inputs": [],
      "name": "getProposalID",
      "outputs": [
        {
          "components": [
            {
              "internalType": "uint32",
              "name": "index",
              "type": "uint32"
            },
            {
              "internalType": "address",
              "name": "proposer",
              "type": "address"
            },
            {
              "internalType": "uint256",
              "name": "startTime",
              "type": "uint256"
            },
            {
              "internalType": "uint256",
              "name": "duration",
              "type": "uint256"
            },
            {
              "internalType": "string",
              "name": "name",
              "type": "string"
            },
            {
              "internalType": "string",
              "name": "content",
              "type": "string"
            },
            {
              "internalType": "uint32",
              "name": "voteNumber",
              "type": "uint32"
            },
            {
              "internalType": "uint32",
              "name": "agreement",
              "type": "uint32"
            },
            {
              "internalType": "bool",
              "name": "isend",
              "type": "bool"
            },
            {
              "internalType": "bool",
              "name": "ispass",
              "type": "bool"
            }
          ],
          "internalType": "struct StudentSocietyDAO.data[]",
          "name": "",
          "type": "tuple[]"
        }
      ],
      "stateMutability": "nonpayable",
      "type": "function"
    },
    {
      "inputs": [],
      "name": "getProposalNumber",
      "outputs": [
        {
          "internalType": "uint32",
          "name": "",
          "type": "uint32"
        }
      ],
      "stateMutability": "nonpayable",
      "type": "function"
    },
    {
      "inputs": [],
      "name": "myERC721",
      "outputs": [
        {
          "internalType": "contract MyERC721",
          "name": "",
          "type": "address"
        }
      ],
      "stateMutability": "view",
      "type": "function"
    },
    {
      "inputs": [
        {
          "internalType": "string",
          "name": "name",
          "type": "string"
        },
        {
          "internalType": "string",
          "name": "content",
          "type": "string"
        },
        {
          "internalType": "uint256",
          "name": "duration",
          "type": "uint256"
        }
      ],
      "name": "newProposal",
      "outputs": [],
      "stateMutability": "nonpayable",
      "type": "function"
    },
    {
      "inputs": [],
      "name": "proposalNumber",
      "outputs": [
        {
          "internalType": "uint32",
          "name": "",
          "type": "uint32"
        }
      ],
      "stateMutability": "view",
      "type": "function"
    },
    {
      "inputs": [],
      "name": "studentERC20",
      "outputs": [
        {
          "internalType": "contract MyERC20",
          "name": "",
          "type": "address"
        }
      ],
      "stateMutability": "view",
      "type": "function"
    },
    {
      "inputs": [
        {
          "internalType": "bool",
          "name": "option",
          "type": "bool"
        },
        {
          "internalType": "uint32",
          "name": "proposalid",
          "type": "uint32"
        }
      ],
      "name": "vote",
      "outputs": [],
      "stateMutability": "nonpayable",
      "type": "function"
    }
  ],
  "bytecode": "0x60806040523480156200001157600080fd5b50604051620000209062000149565b6200002b9062000216565b604051809103906000f08015801562000048573d6000803e3d6000fd5b50600060046101000a81548173ffffffffffffffffffffffffffffffffffffffff021916908373ffffffffffffffffffffffffffffffffffffffff160217905550604051620000979062000157565b620000a29062000216565b604051809103906000f080158015620000bf573d6000803e3d6000fd5b50600160006101000a81548173ffffffffffffffffffffffffffffffffffffffff021916908373ffffffffffffffffffffffffffffffffffffffff16021790555060008060006101000a81548163ffffffff021916908363ffffffff1602179055506000600560006101000a81548163ffffffff021916908363ffffffff1602179055506200024d565b611c6f806200236583390190565b612aac8062003fd483390190565b600082825260208201905092915050565b7f5a4a55546f6b656e000000000000000000000000000000000000000000000000600082015250565b6000620001ae60088362000165565b9150620001bb8262000176565b602082019050919050565b7f5a4a55546f6b656e53796d626f6c000000000000000000000000000000000000600082015250565b6000620001fe600e8362000165565b91506200020b82620001c6565b602082019050919050565b6000604082019050818103600083015262000231816200019f565b905081810360208301526200024681620001ef565b9050919050565b612108806200025d6000396000f3fe608060405234801561001057600080fd5b50600436106100a95760003560e01c80638f334e8d116100715780638f334e8d14610142578063919840ad14610160578063a042d2ec1461016a578063ca8ef89f14610186578063cb896e4f146101a4578063df7a6c76146101d4576100a9565b806320289077146100ae57806320768ee8146100cc5780633c4d81c2146100ea578063500ad6a4146101065780636c3fbb2d14610124575b600080fd5b6100b66101f2565b6040516100c391906115c3565b60405180910390f35b6100d461020b565b6040516100e1919061189e565b60405180910390f35b61010460048036038101906100ff9190611a35565b61089e565b005b61010e610b08565b60405161011b91906115c3565b60405180910390f35b61012c610b1c565b6040516101399190611b1f565b60405180910390f35b61014a610b42565b6040516101579190611b5b565b60405180910390f35b610168610b68565b005b610184600480360381019061017f9190611bce565b611008565b005b61018e61135e565b60405161019b9190611c1d565b60405180910390f35b6101be60048036038101906101b99190611c64565b611363565b6040516101cb91906115c3565b60405180910390f35b6101dc6113bc565b6040516101e99190611c1d565b60405180910390f35b60008060009054906101000a900463ffffffff16905090565b60606004600061021b91906113c2565b6000600190505b60008054906101000a900463ffffffff1663ffffffff168163ffffffff1611610609576000600260008363ffffffff1663ffffffff168152602001908152602001600020905060046040518061014001604052808360000160009054906101000a900463ffffffff1663ffffffff1681526020018360000160049054906101000a900473ffffffffffffffffffffffffffffffffffffffff1673ffffffffffffffffffffffffffffffffffffffff16815260200183600101548152602001836002015481526020018360030180546102f990611cc0565b80601f016020809104026020016040519081016040528092919081815260200182805461032590611cc0565b80156103725780601f1061034757610100808354040283529160200191610372565b820191906000526020600020905b81548152906001019060200180831161035557829003601f168201915b5050505050815260200183600401805461038b90611cc0565b80601f01602080910402602001604051908101604052809291908181526020018280546103b790611cc0565b80156104045780601f106103d957610100808354040283529160200191610404565b820191906000526020600020905b8154815290600101906020018083116103e757829003601f168201915b505050505081526020018360050160009054906101000a900463ffffffff1663ffffffff1681526020018360050160049054906101000a900463ffffffff1663ffffffff1681526020018360050160089054906101000a900460ff16151581526020018360050160099054906101000a900460ff161515815250908060018154018082558091505060019003906000526020600020906006020160009091909190915060008201518160000160006101000a81548163ffffffff021916908363ffffffff16021790555060208201518160000160046101000a81548173ffffffffffffffffffffffffffffffffffffffff021916908373ffffffffffffffffffffffffffffffffffffffff160217905550604082015181600101556060820151816002015560808201518160030190805190602001906105459291906113e6565b5060a08201518160040190805190602001906105629291906113e6565b5060c08201518160050160006101000a81548163ffffffff021916908363ffffffff16021790555060e08201518160050160046101000a81548163ffffffff021916908363ffffffff1602179055506101008201518160050160086101000a81548160ff0219169083151502179055506101208201518160050160096101000a81548160ff021916908315150217905550505050808061060190611d21565b915050610222565b506004805480602002602001604051908101604052809291908181526020016000905b828210156108955783829060005260206000209060060201604051806101400160405290816000820160009054906101000a900463ffffffff1663ffffffff1663ffffffff1681526020016000820160049054906101000a900473ffffffffffffffffffffffffffffffffffffffff1673ffffffffffffffffffffffffffffffffffffffff1673ffffffffffffffffffffffffffffffffffffffff16815260200160018201548152602001600282015481526020016003820180546106f090611cc0565b80601f016020809104026020016040519081016040528092919081815260200182805461071c90611cc0565b80156107695780601f1061073e57610100808354040283529160200191610769565b820191906000526020600020905b81548152906001019060200180831161074c57829003601f168201915b5050505050815260200160048201805461078290611cc0565b80601f01602080910402602001604051908101604052809291908181526020018280546107ae90611cc0565b80156107fb5780601f106107d0576101008083540402835291602001916107fb565b820191906000526020600020905b8154815290600101906020018083116107de57829003601f168201915b505050505081526020016005820160009054906101000a900463ffffffff1663ffffffff1663ffffffff1681526020016005820160049054906101000a900463ffffffff1663ffffffff1663ffffffff1681526020016005820160089054906101000a900460ff161515151581526020016005820160099054906101000a900460ff1615151515815250508152602001906001019061062c565b50505050905090565b600060049054906101000a900473ffffffffffffffffffffffffffffffffffffffff1673ffffffffffffffffffffffffffffffffffffffff166323b872dd33306101f46040518463ffffffff1660e01b81526004016108ff93929190611d5d565b602060405180830381600087803b15801561091957600080fd5b505af115801561092d573d6000803e3d6000fd5b505050506040513d601f19601f820116820180604052508101906109519190611da9565b5060008081819054906101000a900463ffffffff168092919061097390611d21565b91906101000a81548163ffffffff021916908363ffffffff160217905550506000600260008060009054906101000a900463ffffffff1663ffffffff1663ffffffff168152602001908152602001600020905060008054906101000a900463ffffffff168160000160006101000a81548163ffffffff021916908363ffffffff16021790555060008160050160046101000a81548163ffffffff021916908363ffffffff16021790555082816004019080519060200190610a359291906113e6565b5081816002018190555060008160050160086101000a81548160ff02191690831515021790555060008160050160096101000a81548160ff02191690831515021790555083816003019080519060200190610a919291906113e6565b50338160000160046101000a81548173ffffffffffffffffffffffffffffffffffffffff021916908373ffffffffffffffffffffffffffffffffffffffff16021790555042816001018190555060008160050160006101000a81548163ffffffff021916908363ffffffff16021790555050505050565b60008054906101000a900463ffffffff1681565b600060049054906101000a900473ffffffffffffffffffffffffffffffffffffffff1681565b600160009054906101000a900473ffffffffffffffffffffffffffffffffffffffff1681565b6000600190505b60008054906101000a900463ffffffff1663ffffffff168163ffffffff1611611005576000600260008363ffffffff1663ffffffff168152602001908152602001600020905060008160010154905060008260020154905060008360050160009054906101000a900463ffffffff16905060008460050160049054906101000a900463ffffffff16905060008560050160089054906101000a900460ff16905060001515811515148015610c2e5750428486610c2b9190611dd6565b11155b15610fec5760018660050160086101000a81548160ff021916908315150217905550600283610c5d9190611e5b565b63ffffffff168263ffffffff161115610feb5760018660050160096101000a81548160ff02191690831515021790555060006001846002610c9e9190611e8c565b610ca89190611eca565b905060008163ffffffff161015610cbe57600090505b600060049054906101000a900473ffffffffffffffffffffffffffffffffffffffff1673ffffffffffffffffffffffffffffffffffffffff1663a9059cbb8860000160049054906101000a900473ffffffffffffffffffffffffffffffffffffffff1660328463ffffffff16610d349190611efe565b6101f4610d419190611dd6565b6040518363ffffffff1660e01b8152600401610d5e929190611f58565b602060405180830381600087803b158015610d7857600080fd5b505af1158015610d8c573d6000803e3d6000fd5b505050506040513d601f19601f82011682018060405250810190610db09190611da9565b50600360008860000160049054906101000a900473ffffffffffffffffffffffffffffffffffffffff1673ffffffffffffffffffffffffffffffffffffffff1673ffffffffffffffffffffffffffffffffffffffff168152602001908152602001600020600081819054906101000a900463ffffffff1680929190610e3490611d21565b91906101000a81548163ffffffff021916908363ffffffff16021790555050600060038060008a60000160049054906101000a900473ffffffffffffffffffffffffffffffffffffffff1673ffffffffffffffffffffffffffffffffffffffff1673ffffffffffffffffffffffffffffffffffffffff16815260200190815260200160002060009054906101000a900463ffffffff16610ed49190611f81565b63ffffffff161415610fe957600160009054906101000a900473ffffffffffffffffffffffffffffffffffffffff1673ffffffffffffffffffffffffffffffffffffffff16633c49761e308960000160049054906101000a900473ffffffffffffffffffffffffffffffffffffffff16600560009054906101000a900463ffffffff166040518463ffffffff1660e01b8152600401610f7593929190611fb2565b600060405180830381600087803b158015610f8f57600080fd5b505af1158015610fa3573d6000803e3d6000fd5b505050506005600081819054906101000a900463ffffffff1680929190610fc990611d21565b91906101000a81548163ffffffff021916908363ffffffff160217905550505b505b5b5050505050508080610ffd90611d21565b915050610b6f565b50565b611010610b68565b600060049054906101000a900473ffffffffffffffffffffffffffffffffffffffff1673ffffffffffffffffffffffffffffffffffffffff166323b872dd333060326040518463ffffffff1660e01b815260040161107093929190611d5d565b602060405180830381600087803b15801561108a57600080fd5b505af115801561109e573d6000803e3d6000fd5b505050506040513d601f19601f820116820180604052508101906110c29190611da9565b506000600260008363ffffffff1663ffffffff1681526020019081526020016000209050600015158160070160003373ffffffffffffffffffffffffffffffffffffffff1673ffffffffffffffffffffffffffffffffffffffff16815260200190815260200160002060009054906101000a900460ff1615151461117b576040517f08c379a000000000000000000000000000000000000000000000000000000000815260040161117290612046565b60405180910390fd5b60018160070160003373ffffffffffffffffffffffffffffffffffffffff1673ffffffffffffffffffffffffffffffffffffffff16815260200190815260200160002060006101000a81548160ff02191690831515021790555060008160010154905060008260020154905060008360050160089054906101000a900460ff169050600115158115151415801561121c575042828461121a9190611dd6565b115b61125b576040517f08c379a0000000000000000000000000000000000000000000000000000000008152600401611252906120b2565b60405180910390fd5b6000151581151514156113565783600501600081819054906101000a900463ffffffff168092919061128c90611d21565b91906101000a81548163ffffffff021916908363ffffffff160217905550506001151586151514156112fc5783600501600481819054906101000a900463ffffffff16809291906112dc90611d21565b91906101000a81548163ffffffff021916908363ffffffff160217905550505b858460060160003373ffffffffffffffffffffffffffffffffffffffff1673ffffffffffffffffffffffffffffffffffffffff16815260200190815260200160002060006101000a81548160ff0219169083151502179055505b505050505050565b603281565b6000600360008373ffffffffffffffffffffffffffffffffffffffff1673ffffffffffffffffffffffffffffffffffffffff16815260200190815260200160002060009054906101000a900463ffffffff169050919050565b6101f481565b50805460008255600602906000526020600020908101906113e3919061146c565b50565b8280546113f290611cc0565b90600052602060002090601f016020900481019282611414576000855561145b565b82601f1061142d57805160ff191683800117855561145b565b8280016001018555821561145b579182015b8281111561145a57825182559160200191906001019061143f565b5b5090506114689190611547565b5090565b5b8082111561154357600080820160006101000a81549063ffffffff02191690556000820160046101000a81549073ffffffffffffffffffffffffffffffffffffffff0219169055600182016000905560028201600090556003820160006114d49190611564565b6004820160006114e49190611564565b6005820160006101000a81549063ffffffff02191690556005820160046101000a81549063ffffffff02191690556005820160086101000a81549060ff02191690556005820160096101000a81549060ff02191690555060060161146d565b5090565b5b80821115611560576000816000905550600101611548565b5090565b50805461157090611cc0565b6000825580601f1061158257506115a1565b601f0160209004906000526020600020908101906115a09190611547565b5b50565b600063ffffffff82169050919050565b6115bd816115a4565b82525050565b60006020820190506115d860008301846115b4565b92915050565b600081519050919050565b600082825260208201905092915050565b6000819050602082019050919050565b611613816115a4565b82525050565b600073ffffffffffffffffffffffffffffffffffffffff82169050919050565b600061164482611619565b9050919050565b61165481611639565b82525050565b6000819050919050565b61166d8161165a565b82525050565b600081519050919050565b600082825260208201905092915050565b60005b838110156116ad578082015181840152602081019050611692565b838111156116bc576000848401525b50505050565b6000601f19601f8301169050919050565b60006116de82611673565b6116e8818561167e565b93506116f881856020860161168f565b611701816116c2565b840191505092915050565b60008115159050919050565b6117218161170c565b82525050565b600061014083016000830151611740600086018261160a565b506020830151611753602086018261164b565b5060408301516117666040860182611664565b5060608301516117796060860182611664565b506080830151848203608086015261179182826116d3565b91505060a083015184820360a08601526117ab82826116d3565b91505060c08301516117c060c086018261160a565b5060e08301516117d360e086018261160a565b506101008301516117e8610100860182611718565b506101208301516117fd610120860182611718565b508091505092915050565b60006118148383611727565b905092915050565b6000602082019050919050565b6000611834826115de565b61183e81856115e9565b935083602082028501611850856115fa565b8060005b8581101561188c578484038952815161186d8582611808565b94506118788361181c565b925060208a01995050600181019050611854565b50829750879550505050505092915050565b600060208201905081810360008301526118b88184611829565b905092915050565b6000604051905090565b600080fd5b600080fd5b600080fd5b600080fd5b7f4e487b7100000000000000000000000000000000000000000000000000000000600052604160045260246000fd5b611916826116c2565b810181811067ffffffffffffffff82111715611935576119346118de565b5b80604052505050565b60006119486118c0565b9050611954828261190d565b919050565b600067ffffffffffffffff821115611974576119736118de565b5b61197d826116c2565b9050602081019050919050565b82818337600083830152505050565b60006119ac6119a784611959565b61193e565b9050828152602081018484840111156119c8576119c76118d9565b5b6119d384828561198a565b509392505050565b600082601f8301126119f0576119ef6118d4565b5b8135611a00848260208601611999565b91505092915050565b611a128161165a565b8114611a1d57600080fd5b50565b600081359050611a2f81611a09565b92915050565b600080600060608486031215611a4e57611a4d6118ca565b5b600084013567ffffffffffffffff811115611a6c57611a6b6118cf565b5b611a78868287016119db565b935050602084013567ffffffffffffffff811115611a9957611a986118cf565b5b611aa5868287016119db565b9250506040611ab686828701611a20565b9150509250925092565b6000819050919050565b6000611ae5611ae0611adb84611619565b611ac0565b611619565b9050919050565b6000611af782611aca565b9050919050565b6000611b0982611aec565b9050919050565b611b1981611afe565b82525050565b6000602082019050611b346000830184611b10565b92915050565b6000611b4582611aec565b9050919050565b611b5581611b3a565b82525050565b6000602082019050611b706000830184611b4c565b92915050565b611b7f8161170c565b8114611b8a57600080fd5b50565b600081359050611b9c81611b76565b92915050565b611bab816115a4565b8114611bb657600080fd5b50565b600081359050611bc881611ba2565b92915050565b60008060408385031215611be557611be46118ca565b5b6000611bf385828601611b8d565b9250506020611c0485828601611bb9565b9150509250929050565b611c178161165a565b82525050565b6000602082019050611c326000830184611c0e565b92915050565b611c4181611639565b8114611c4c57600080fd5b50565b600081359050611c5e81611c38565b92915050565b600060208284031215611c7a57611c796118ca565b5b6000611c8884828501611c4f565b91505092915050565b7f4e487b7100000000000000000000000000000000000000000000000000000000600052602260045260246000fd5b60006002820490506001821680611cd857607f821691505b60208210811415611cec57611ceb611c91565b5b50919050565b7f4e487b7100000000000000000000000000000000000000000000000000000000600052601160045260246000fd5b6000611d2c826115a4565b915063ffffffff821415611d4357611d42611cf2565b5b600182019050919050565b611d5781611639565b82525050565b6000606082019050611d726000830186611d4e565b611d7f6020830185611d4e565b611d8c6040830184611c0e565b949350505050565b600081519050611da381611b76565b92915050565b600060208284031215611dbf57611dbe6118ca565b5b6000611dcd84828501611d94565b91505092915050565b6000611de18261165a565b9150611dec8361165a565b9250827fffffffffffffffffffffffffffffffffffffffffffffffffffffffffffffffff03821115611e2157611e20611cf2565b5b828201905092915050565b7f4e487b7100000000000000000000000000000000000000000000000000000000600052601260045260246000fd5b6000611e66826115a4565b9150611e71836115a4565b925082611e8157611e80611e2c565b5b828204905092915050565b6000611e97826115a4565b9150611ea2836115a4565b92508163ffffffff0483118215151615611ebf57611ebe611cf2565b5b828202905092915050565b6000611ed5826115a4565b9150611ee0836115a4565b925082821015611ef357611ef2611cf2565b5b828203905092915050565b6000611f098261165a565b9150611f148361165a565b9250817fffffffffffffffffffffffffffffffffffffffffffffffffffffffffffffffff0483118215151615611f4d57611f4c611cf2565b5b828202905092915050565b6000604082019050611f6d6000830185611d4e565b611f7a6020830184611c0e565b9392505050565b6000611f8c826115a4565b9150611f97836115a4565b925082611fa757611fa6611e2c565b5b828206905092915050565b6000606082019050611fc76000830186611d4e565b611fd46020830185611d4e565b611fe160408301846115b4565b949350505050565b600082825260208201905092915050565b7f5468697320757365722068617320766f74656420616c72656164790000000000600082015250565b6000612030601b83611fe9565b915061203b82611ffa565b602082019050919050565b6000602082019050818103600083015261205f81612023565b9050919050565b7f566f74696e672068617320636c6f7365642e0000000000000000000000000000600082015250565b600061209c601283611fe9565b91506120a782612066565b602082019050919050565b600060208201905081810360008301526120cb8161208f565b905091905056fea2646970667358221220cb398136717622049c4da53a62a89a6af249f257489bc8fd4ef20caf3502e3d264736f6c6343000809003360806040523480156200001157600080fd5b5060405162001c6f38038062001c6f83398181016040528101906200003791906200045a565b81818160039080519060200190620000519291906200020d565b5080600490805190602001906200006a9291906200020d565b5050506200008233620186a06200008a60201b60201c565b50506200068b565b600073ffffffffffffffffffffffffffffffffffffffff168273ffffffffffffffffffffffffffffffffffffffff161415620000fd576040517f08c379a0000000000000000000000000000000000000000000000000000000008152600401620000f49062000540565b60405180910390fd5b62000111600083836200020360201b60201c565b80600260008282546200012591906200059b565b92505081905550806000808473ffffffffffffffffffffffffffffffffffffffff1673ffffffffffffffffffffffffffffffffffffffff16815260200190815260200160002060008282546200017c91906200059b565b925050819055508173ffffffffffffffffffffffffffffffffffffffff16600073ffffffffffffffffffffffffffffffffffffffff167fddf252ad1be2c89b69c2b068fc378daa952ba7f163c4a11628f55a4df523b3ef83604051620001e3919062000609565b60405180910390a3620001ff600083836200020860201b60201c565b5050565b505050565b505050565b8280546200021b9062000655565b90600052602060002090601f0160209004810192826200023f57600085556200028b565b82601f106200025a57805160ff19168380011785556200028b565b828001600101855582156200028b579182015b828111156200028a5782518255916020019190600101906200026d565b5b5090506200029a91906200029e565b5090565b5b80821115620002b95760008160009055506001016200029f565b5090565b6000604051905090565b600080fd5b600080fd5b600080fd5b600080fd5b6000601f19601f8301169050919050565b7f4e487b7100000000000000000000000000000000000000000000000000000000600052604160045260246000fd5b6200032682620002db565b810181811067ffffffffffffffff82111715620003485762000347620002ec565b5b80604052505050565b60006200035d620002bd565b90506200036b82826200031b565b919050565b600067ffffffffffffffff8211156200038e576200038d620002ec565b5b6200039982620002db565b9050602081019050919050565b60005b83811015620003c6578082015181840152602081019050620003a9565b83811115620003d6576000848401525b50505050565b6000620003f3620003ed8462000370565b62000351565b905082815260208101848484011115620004125762000411620002d6565b5b6200041f848285620003a6565b509392505050565b600082601f8301126200043f576200043e620002d1565b5b815162000451848260208601620003dc565b91505092915050565b60008060408385031215620004745762000473620002c7565b5b600083015167ffffffffffffffff811115620004955762000494620002cc565b5b620004a38582860162000427565b925050602083015167ffffffffffffffff811115620004c757620004c6620002cc565b5b620004d58582860162000427565b9150509250929050565b600082825260208201905092915050565b7f45524332303a206d696e7420746f20746865207a65726f206164647265737300600082015250565b600062000528601f83620004df565b91506200053582620004f0565b602082019050919050565b600060208201905081810360008301526200055b8162000519565b9050919050565b6000819050919050565b7f4e487b7100000000000000000000000000000000000000000000000000000000600052601160045260246000fd5b6000620005a88262000562565b9150620005b58362000562565b9250827fffffffffffffffffffffffffffffffffffffffffffffffffffffffffffffffff03821115620005ed57620005ec6200056c565b5b828201905092915050565b620006038162000562565b82525050565b6000602082019050620006206000830184620005f8565b92915050565b7f4e487b7100000000000000000000000000000000000000000000000000000000600052602260045260246000fd5b600060028204905060018216806200066e57607f821691505b6020821081141562000685576200068462000626565b5b50919050565b6115d4806200069b6000396000f3fe608060405234801561001057600080fd5b50600436106100b45760003560e01c80633950935111610071578063395093511461017d57806370a08231146101ad57806395d89b41146101dd578063a457c2d7146101fb578063a9059cbb1461022b578063dd62ed3e1461025b576100b4565b806306fdde03146100b9578063095ea7b3146100d757806318160ddd1461010757806323b872dd14610125578063313ce567146101555780633884d63514610173575b600080fd5b6100c161028b565b6040516100ce9190610d90565b60405180910390f35b6100f160048036038101906100ec9190610e4b565b61031d565b6040516100fe9190610ea6565b60405180910390f35b61010f610340565b60405161011c9190610ed0565b60405180910390f35b61013f600480360381019061013a9190610eeb565b61034a565b60405161014c9190610ea6565b60405180910390f35b61015d610379565b60405161016a9190610f5a565b60405180910390f35b61017b610382565b005b61019760048036038101906101929190610e4b565b61047b565b6040516101a49190610ea6565b60405180910390f35b6101c760048036038101906101c29190610f75565b6104b2565b6040516101d49190610ed0565b60405180910390f35b6101e56104fa565b6040516101f29190610d90565b60405180910390f35b61021560048036038101906102109190610e4b565b61058c565b6040516102229190610ea6565b60405180910390f35b61024560048036038101906102409190610e4b565b610603565b6040516102529190610ea6565b60405180910390f35b61027560048036038101906102709190610fa2565b610626565b6040516102829190610ed0565b60405180910390f35b60606003805461029a90611011565b80601f01602080910402602001604051908101604052809291908181526020018280546102c690611011565b80156103135780601f106102e857610100808354040283529160200191610313565b820191906000526020600020905b8154815290600101906020018083116102f657829003601f168201915b5050505050905090565b6000806103286106ad565b90506103358185856106b5565b600191505092915050565b6000600254905090565b6000806103556106ad565b9050610362858285610880565b61036d85858561090c565b60019150509392505050565b60006012905090565b60001515600560003373ffffffffffffffffffffffffffffffffffffffff1673ffffffffffffffffffffffffffffffffffffffff16815260200190815260200160002060009054906101000a900460ff16151514610415576040517f08c379a000000000000000000000000000000000000000000000000000000000815260040161040c906110b5565b60405180910390fd5b61042133612710610b8d565b6001600560003373ffffffffffffffffffffffffffffffffffffffff1673ffffffffffffffffffffffffffffffffffffffff16815260200190815260200160002060006101000a81548160ff021916908315150217905550565b6000806104866106ad565b90506104a78185856104988589610626565b6104a29190611104565b6106b5565b600191505092915050565b60008060008373ffffffffffffffffffffffffffffffffffffffff1673ffffffffffffffffffffffffffffffffffffffff168152602001908152602001600020549050919050565b60606004805461050990611011565b80601f016020809104026020016040519081016040528092919081815260200182805461053590611011565b80156105825780601f1061055757610100808354040283529160200191610582565b820191906000526020600020905b81548152906001019060200180831161056557829003601f168201915b5050505050905090565b6000806105976106ad565b905060006105a58286610626565b9050838110156105ea576040517f08c379a00000000000000000000000000000000000000000000000000000000081526004016105e1906111cc565b60405180910390fd5b6105f782868684036106b5565b60019250505092915050565b60008061060e6106ad565b905061061b81858561090c565b600191505092915050565b6000600160008473ffffffffffffffffffffffffffffffffffffffff1673ffffffffffffffffffffffffffffffffffffffff16815260200190815260200160002060008373ffffffffffffffffffffffffffffffffffffffff1673ffffffffffffffffffffffffffffffffffffffff16815260200190815260200160002054905092915050565b600033905090565b600073ffffffffffffffffffffffffffffffffffffffff168373ffffffffffffffffffffffffffffffffffffffff161415610725576040517f08c379a000000000000000000000000000000000000000000000000000000000815260040161071c9061125e565b60405180910390fd5b600073ffffffffffffffffffffffffffffffffffffffff168273ffffffffffffffffffffffffffffffffffffffff161415610795576040517f08c379a000000000000000000000000000000000000000000000000000000000815260040161078c906112f0565b60405180910390fd5b80600160008573ffffffffffffffffffffffffffffffffffffffff1673ffffffffffffffffffffffffffffffffffffffff16815260200190815260200160002060008473ffffffffffffffffffffffffffffffffffffffff1673ffffffffffffffffffffffffffffffffffffffff168152602001908152602001600020819055508173ffffffffffffffffffffffffffffffffffffffff168373ffffffffffffffffffffffffffffffffffffffff167f8c5be1e5ebec7d5bd14f71427d1e84f3dd0314c0f7b2291e5b200ac8c7c3b925836040516108739190610ed0565b60405180910390a3505050565b600061088c8484610626565b90507fffffffffffffffffffffffffffffffffffffffffffffffffffffffffffffffff811461090657818110156108f8576040517f08c379a00000000000000000000000000000000000000000000000000000000081526004016108ef9061135c565b60405180910390fd5b61090584848484036106b5565b5b50505050565b600073ffffffffffffffffffffffffffffffffffffffff168373ffffffffffffffffffffffffffffffffffffffff16141561097c576040517f08c379a0000000000000000000000000000000000000000000000000000000008152600401610973906113ee565b60405180910390fd5b600073ffffffffffffffffffffffffffffffffffffffff168273ffffffffffffffffffffffffffffffffffffffff1614156109ec576040517f08c379a00000000000000000000000000000000000000000000000000000000081526004016109e390611480565b60405180910390fd5b6109f7838383610ced565b60008060008573ffffffffffffffffffffffffffffffffffffffff1673ffffffffffffffffffffffffffffffffffffffff16815260200190815260200160002054905081811015610a7d576040517f08c379a0000000000000000000000000000000000000000000000000000000008152600401610a7490611512565b60405180910390fd5b8181036000808673ffffffffffffffffffffffffffffffffffffffff1673ffffffffffffffffffffffffffffffffffffffff16815260200190815260200160002081905550816000808573ffffffffffffffffffffffffffffffffffffffff1673ffffffffffffffffffffffffffffffffffffffff1681526020019081526020016000206000828254610b109190611104565b925050819055508273ffffffffffffffffffffffffffffffffffffffff168473ffffffffffffffffffffffffffffffffffffffff167fddf252ad1be2c89b69c2b068fc378daa952ba7f163c4a11628f55a4df523b3ef84604051610b749190610ed0565b60405180910390a3610b87848484610cf2565b50505050565b600073ffffffffffffffffffffffffffffffffffffffff168273ffffffffffffffffffffffffffffffffffffffff161415610bfd576040517f08c379a0000000000000000000000000000000000000000000000000000000008152600401610bf49061157e565b60405180910390fd5b610c0960008383610ced565b8060026000828254610c1b9190611104565b92505081905550806000808473ffffffffffffffffffffffffffffffffffffffff1673ffffffffffffffffffffffffffffffffffffffff1681526020019081526020016000206000828254610c709190611104565b925050819055508173ffffffffffffffffffffffffffffffffffffffff16600073ffffffffffffffffffffffffffffffffffffffff167fddf252ad1be2c89b69c2b068fc378daa952ba7f163c4a11628f55a4df523b3ef83604051610cd59190610ed0565b60405180910390a3610ce960008383610cf2565b5050565b505050565b505050565b600081519050919050565b600082825260208201905092915050565b60005b83811015610d31578082015181840152602081019050610d16565b83811115610d40576000848401525b50505050565b6000601f19601f8301169050919050565b6000610d6282610cf7565b610d6c8185610d02565b9350610d7c818560208601610d13565b610d8581610d46565b840191505092915050565b60006020820190508181036000830152610daa8184610d57565b905092915050565b600080fd5b600073ffffffffffffffffffffffffffffffffffffffff82169050919050565b6000610de282610db7565b9050919050565b610df281610dd7565b8114610dfd57600080fd5b50565b600081359050610e0f81610de9565b92915050565b6000819050919050565b610e2881610e15565b8114610e3357600080fd5b50565b600081359050610e4581610e1f565b92915050565b60008060408385031215610e6257610e61610db2565b5b6000610e7085828601610e00565b9250506020610e8185828601610e36565b9150509250929050565b60008115159050919050565b610ea081610e8b565b82525050565b6000602082019050610ebb6000830184610e97565b92915050565b610eca81610e15565b82525050565b6000602082019050610ee56000830184610ec1565b92915050565b600080600060608486031215610f0457610f03610db2565b5b6000610f1286828701610e00565b9350506020610f2386828701610e00565b9250506040610f3486828701610e36565b9150509250925092565b600060ff82169050919050565b610f5481610f3e565b82525050565b6000602082019050610f6f6000830184610f4b565b92915050565b600060208284031215610f8b57610f8a610db2565b5b6000610f9984828501610e00565b91505092915050565b60008060408385031215610fb957610fb8610db2565b5b6000610fc785828601610e00565b9250506020610fd885828601610e00565b9150509250929050565b7f4e487b7100000000000000000000000000000000000000000000000000000000600052602260045260246000fd5b6000600282049050600182168061102957607f821691505b6020821081141561103d5761103c610fe2565b5b50919050565b7f5468697320757365722068617320636c61696d65642061697264726f7020616c60008201527f7265616479000000000000000000000000000000000000000000000000000000602082015250565b600061109f602583610d02565b91506110aa82611043565b604082019050919050565b600060208201905081810360008301526110ce81611092565b9050919050565b7f4e487b7100000000000000000000000000000000000000000000000000000000600052601160045260246000fd5b600061110f82610e15565b915061111a83610e15565b9250827fffffffffffffffffffffffffffffffffffffffffffffffffffffffffffffffff0382111561114f5761114e6110d5565b5b828201905092915050565b7f45524332303a2064656372656173656420616c6c6f77616e63652062656c6f7760008201527f207a65726f000000000000000000000000000000000000000000000000000000602082015250565b60006111b6602583610d02565b91506111c18261115a565b604082019050919050565b600060208201905081810360008301526111e5816111a9565b9050919050565b7f45524332303a20617070726f76652066726f6d20746865207a65726f2061646460008201527f7265737300000000000000000000000000000000000000000000000000000000602082015250565b6000611248602483610d02565b9150611253826111ec565b604082019050919050565b600060208201905081810360008301526112778161123b565b9050919050565b7f45524332303a20617070726f766520746f20746865207a65726f20616464726560008201527f7373000000000000000000000000000000000000000000000000000000000000602082015250565b60006112da602283610d02565b91506112e58261127e565b604082019050919050565b60006020820190508181036000830152611309816112cd565b9050919050565b7f45524332303a20696e73756666696369656e7420616c6c6f77616e6365000000600082015250565b6000611346601d83610d02565b915061135182611310565b602082019050919050565b6000602082019050818103600083015261137581611339565b9050919050565b7f45524332303a207472616e736665722066726f6d20746865207a65726f20616460008201527f6472657373000000000000000000000000000000000000000000000000000000602082015250565b60006113d8602583610d02565b91506113e38261137c565b604082019050919050565b60006020820190508181036000830152611407816113cb565b9050919050565b7f45524332303a207472616e7366657220746f20746865207a65726f206164647260008201527f6573730000000000000000000000000000000000000000000000000000000000602082015250565b600061146a602383610d02565b91506114758261140e565b604082019050919050565b600060208201905081810360008301526114998161145d565b9050919050565b7f45524332303a207472616e7366657220616d6f756e742065786365656473206260008201527f616c616e63650000000000000000000000000000000000000000000000000000602082015250565b60006114fc602683610d02565b9150611507826114a0565b604082019050919050565b6000602082019050818103600083015261152b816114ef565b9050919050565b7f45524332303a206d696e7420746f20746865207a65726f206164647265737300600082015250565b6000611568601f83610d02565b915061157382611532565b602082019050919050565b600060208201905081810360008301526115978161155b565b905091905056fea2646970667358221220fb283543000290830bddbfaf131f3268db294863bd4c7df3f3840a936165f23364736f6c6343000809003360806040523480156200001157600080fd5b5060405162002aac38038062002aac833981810160405281019062000037919062000573565b818181600090805190602001906200005192919062000326565b5080600190805190602001906200006a92919062000326565b50505060005b60148163ffffffff1611620000ad5762000097338263ffffffff16620000b660201b60201c565b8080620000a49062000637565b91505062000070565b5050506200082a565b600073ffffffffffffffffffffffffffffffffffffffff168273ffffffffffffffffffffffffffffffffffffffff16141562000129576040517f08c379a00000000000000000000000000000000000000000000000000000000081526004016200012090620006ca565b60405180910390fd5b6200013a81620002b060201b60201c565b156200017d576040517f08c379a000000000000000000000000000000000000000000000000000000000815260040162000174906200073c565b60405180910390fd5b62000191600083836200031c60201b60201c565b6001600360008473ffffffffffffffffffffffffffffffffffffffff1673ffffffffffffffffffffffffffffffffffffffff1681526020019081526020016000206000828254620001e3919062000768565b92505081905550816002600083815260200190815260200160002060006101000a81548173ffffffffffffffffffffffffffffffffffffffff021916908373ffffffffffffffffffffffffffffffffffffffff160217905550808273ffffffffffffffffffffffffffffffffffffffff16600073ffffffffffffffffffffffffffffffffffffffff167fddf252ad1be2c89b69c2b068fc378daa952ba7f163c4a11628f55a4df523b3ef60405160405180910390a4620002ac600083836200032160201b60201c565b5050565b60008073ffffffffffffffffffffffffffffffffffffffff166002600084815260200190815260200160002060009054906101000a900473ffffffffffffffffffffffffffffffffffffffff1673ffffffffffffffffffffffffffffffffffffffff1614159050919050565b505050565b505050565b8280546200033490620007f4565b90600052602060002090601f016020900481019282620003585760008555620003a4565b82601f106200037357805160ff1916838001178555620003a4565b82800160010185558215620003a4579182015b82811115620003a357825182559160200191906001019062000386565b5b509050620003b39190620003b7565b5090565b5b80821115620003d2576000816000905550600101620003b8565b5090565b6000604051905090565b600080fd5b600080fd5b600080fd5b600080fd5b6000601f19601f8301169050919050565b7f4e487b7100000000000000000000000000000000000000000000000000000000600052604160045260246000fd5b6200043f82620003f4565b810181811067ffffffffffffffff8211171562000461576200046062000405565b5b80604052505050565b600062000476620003d6565b905062000484828262000434565b919050565b600067ffffffffffffffff821115620004a757620004a662000405565b5b620004b282620003f4565b9050602081019050919050565b60005b83811015620004df578082015181840152602081019050620004c2565b83811115620004ef576000848401525b50505050565b60006200050c620005068462000489565b6200046a565b9050828152602081018484840111156200052b576200052a620003ef565b5b62000538848285620004bf565b509392505050565b600082601f830112620005585762000557620003ea565b5b81516200056a848260208601620004f5565b91505092915050565b600080604083850312156200058d576200058c620003e0565b5b600083015167ffffffffffffffff811115620005ae57620005ad620003e5565b5b620005bc8582860162000540565b925050602083015167ffffffffffffffff811115620005e057620005df620003e5565b5b620005ee8582860162000540565b9150509250929050565b7f4e487b7100000000000000000000000000000000000000000000000000000000600052601160045260246000fd5b600063ffffffff82169050919050565b6000620006448262000627565b915063ffffffff8214156200065e576200065d620005f8565b5b600182019050919050565b600082825260208201905092915050565b7f4552433732313a206d696e7420746f20746865207a65726f2061646472657373600082015250565b6000620006b260208362000669565b9150620006bf826200067a565b602082019050919050565b60006020820190508181036000830152620006e581620006a3565b9050919050565b7f4552433732313a20746f6b656e20616c7265616479206d696e74656400000000600082015250565b600062000724601c8362000669565b91506200073182620006ec565b602082019050919050565b60006020820190508181036000830152620007578162000715565b9050919050565b6000819050919050565b600062000775826200075e565b915062000782836200075e565b9250827fffffffffffffffffffffffffffffffffffffffffffffffffffffffffffffffff03821115620007ba57620007b9620005f8565b5b828201905092915050565b7f4e487b7100000000000000000000000000000000000000000000000000000000600052602260045260246000fd5b600060028204905060018216806200080d57607f821691505b60208210811415620008245762000823620007c5565b5b50919050565b612272806200083a6000396000f3fe608060405234801561001057600080fd5b50600436106100ea5760003560e01c80636352211e1161008c578063a22cb46511610066578063a22cb4651461025b578063b88d4fde14610277578063c87b56dd14610293578063e985e9c5146102c3576100ea565b80636352211e146101dd57806370a082311461020d57806395d89b411461023d576100ea565b8063095ea7b3116100c8578063095ea7b31461016d57806323b872dd146101895780633c49761e146101a557806342842e0e146101c1576100ea565b806301ffc9a7146100ef57806306fdde031461011f578063081812fc1461013d575b600080fd5b6101096004803603810190610104919061141a565b6102f3565b6040516101169190611462565b60405180910390f35b6101276103d5565b6040516101349190611516565b60405180910390f35b6101576004803603810190610152919061156e565b610467565b60405161016491906115dc565b60405180910390f35b61018760048036038101906101829190611623565b6104ad565b005b6101a3600480360381019061019e9190611663565b6105c5565b005b6101bf60048036038101906101ba91906116f2565b610625565b005b6101db60048036038101906101d69190611663565b61063b565b005b6101f760048036038101906101f2919061156e565b61065b565b60405161020491906115dc565b60405180910390f35b61022760048036038101906102229190611745565b61070d565b6040516102349190611781565b60405180910390f35b6102456107c5565b6040516102529190611516565b60405180910390f35b610275600480360381019061027091906117c8565b610857565b005b610291600480360381019061028c919061193d565b61086d565b005b6102ad60048036038101906102a8919061156e565b6108cf565b6040516102ba9190611516565b60405180910390f35b6102dd60048036038101906102d891906119c0565b610937565b6040516102ea9190611462565b60405180910390f35b60007f80ac58cd000000000000000000000000000000000000000000000000000000007bffffffffffffffffffffffffffffffffffffffffffffffffffffffff1916827bffffffffffffffffffffffffffffffffffffffffffffffffffffffff191614806103be57507f5b5e139f000000000000000000000000000000000000000000000000000000007bffffffffffffffffffffffffffffffffffffffffffffffffffffffff1916827bffffffffffffffffffffffffffffffffffffffffffffffffffffffff1916145b806103ce57506103cd826109cb565b5b9050919050565b6060600080546103e490611a2f565b80601f016020809104026020016040519081016040528092919081815260200182805461041090611a2f565b801561045d5780601f106104325761010080835404028352916020019161045d565b820191906000526020600020905b81548152906001019060200180831161044057829003601f168201915b5050505050905090565b600061047282610a35565b6004600083815260200190815260200160002060009054906101000a900473ffffffffffffffffffffffffffffffffffffffff169050919050565b60006104b88261065b565b90508073ffffffffffffffffffffffffffffffffffffffff168373ffffffffffffffffffffffffffffffffffffffff161415610529576040517f08c379a000000000000000000000000000000000000000000000000000000000815260040161052090611ad3565b60405180910390fd5b8073ffffffffffffffffffffffffffffffffffffffff16610548610a80565b73ffffffffffffffffffffffffffffffffffffffff161480610577575061057681610571610a80565b610937565b5b6105b6576040517f08c379a00000000000000000000000000000000000000000000000000000000081526004016105ad90611b65565b60405180910390fd5b6105c08383610a88565b505050565b6105d66105d0610a80565b82610b41565b610615576040517f08c379a000000000000000000000000000000000000000000000000000000000815260040161060c90611bf7565b60405180910390fd5b610620838383610bd6565b505050565b61063683838363ffffffff16610bd6565b505050565b6106568383836040518060200160405280600081525061086d565b505050565b6000806002600084815260200190815260200160002060009054906101000a900473ffffffffffffffffffffffffffffffffffffffff169050600073ffffffffffffffffffffffffffffffffffffffff168173ffffffffffffffffffffffffffffffffffffffff161415610704576040517f08c379a00000000000000000000000000000000000000000000000000000000081526004016106fb90611c63565b60405180910390fd5b80915050919050565b60008073ffffffffffffffffffffffffffffffffffffffff168273ffffffffffffffffffffffffffffffffffffffff16141561077e576040517f08c379a000000000000000000000000000000000000000000000000000000000815260040161077590611cf5565b60405180910390fd5b600360008373ffffffffffffffffffffffffffffffffffffffff1673ffffffffffffffffffffffffffffffffffffffff168152602001908152602001600020549050919050565b6060600180546107d490611a2f565b80601f016020809104026020016040519081016040528092919081815260200182805461080090611a2f565b801561084d5780601f106108225761010080835404028352916020019161084d565b820191906000526020600020905b81548152906001019060200180831161083057829003601f168201915b5050505050905090565b610869610862610a80565b8383610e3d565b5050565b61087e610878610a80565b83610b41565b6108bd576040517f08c379a00000000000000000000000000000000000000000000000000000000081526004016108b490611bf7565b60405180910390fd5b6108c984848484610faa565b50505050565b60606108da82610a35565b60006108e4611006565b90506000815111610904576040518060200160405280600081525061092f565b8061090e8461101d565b60405160200161091f929190611d51565b6040516020818303038152906040525b915050919050565b6000600560008473ffffffffffffffffffffffffffffffffffffffff1673ffffffffffffffffffffffffffffffffffffffff16815260200190815260200160002060008373ffffffffffffffffffffffffffffffffffffffff1673ffffffffffffffffffffffffffffffffffffffff16815260200190815260200160002060009054906101000a900460ff16905092915050565b60007f01ffc9a7000000000000000000000000000000000000000000000000000000007bffffffffffffffffffffffffffffffffffffffffffffffffffffffff1916827bffffffffffffffffffffffffffffffffffffffffffffffffffffffff1916149050919050565b610a3e8161117e565b610a7d576040517f08c379a0000000000000000000000000000000000000000000000000000000008152600401610a7490611c63565b60405180910390fd5b50565b600033905090565b816004600083815260200190815260200160002060006101000a81548173ffffffffffffffffffffffffffffffffffffffff021916908373ffffffffffffffffffffffffffffffffffffffff160217905550808273ffffffffffffffffffffffffffffffffffffffff16610afb8361065b565b73ffffffffffffffffffffffffffffffffffffffff167f8c5be1e5ebec7d5bd14f71427d1e84f3dd0314c0f7b2291e5b200ac8c7c3b92560405160405180910390a45050565b600080610b4d8361065b565b90508073ffffffffffffffffffffffffffffffffffffffff168473ffffffffffffffffffffffffffffffffffffffff161480610b8f5750610b8e8185610937565b5b80610bcd57508373ffffffffffffffffffffffffffffffffffffffff16610bb584610467565b73ffffffffffffffffffffffffffffffffffffffff16145b91505092915050565b8273ffffffffffffffffffffffffffffffffffffffff16610bf68261065b565b73ffffffffffffffffffffffffffffffffffffffff1614610c4c576040517f08c379a0000000000000000000000000000000000000000000000000000000008152600401610c4390611de7565b60405180910390fd5b600073ffffffffffffffffffffffffffffffffffffffff168273ffffffffffffffffffffffffffffffffffffffff161415610cbc576040517f08c379a0000000000000000000000000000000000000000000000000000000008152600401610cb390611e79565b60405180910390fd5b610cc78383836111ea565b610cd2600082610a88565b6001600360008573ffffffffffffffffffffffffffffffffffffffff1673ffffffffffffffffffffffffffffffffffffffff1681526020019081526020016000206000828254610d229190611ec8565b925050819055506001600360008473ffffffffffffffffffffffffffffffffffffffff1673ffffffffffffffffffffffffffffffffffffffff1681526020019081526020016000206000828254610d799190611efc565b92505081905550816002600083815260200190815260200160002060006101000a81548173ffffffffffffffffffffffffffffffffffffffff021916908373ffffffffffffffffffffffffffffffffffffffff160217905550808273ffffffffffffffffffffffffffffffffffffffff168473ffffffffffffffffffffffffffffffffffffffff167fddf252ad1be2c89b69c2b068fc378daa952ba7f163c4a11628f55a4df523b3ef60405160405180910390a4610e388383836111ef565b505050565b8173ffffffffffffffffffffffffffffffffffffffff168373ffffffffffffffffffffffffffffffffffffffff161415610eac576040517f08c379a0000000000000000000000000000000000000000000000000000000008152600401610ea390611f9e565b60405180910390fd5b80600560008573ffffffffffffffffffffffffffffffffffffffff1673ffffffffffffffffffffffffffffffffffffffff16815260200190815260200160002060008473ffffffffffffffffffffffffffffffffffffffff1673ffffffffffffffffffffffffffffffffffffffff16815260200190815260200160002060006101000a81548160ff0219169083151502179055508173ffffffffffffffffffffffffffffffffffffffff168373ffffffffffffffffffffffffffffffffffffffff167f17307eab39ab6107e8899845ad3d59bd9653f200f220920489ca2b5937696c3183604051610f9d9190611462565b60405180910390a3505050565b610fb5848484610bd6565b610fc1848484846111f4565b611000576040517f08c379a0000000000000000000000000000000000000000000000000000000008152600401610ff790612030565b60405180910390fd5b50505050565b606060405180602001604052806000815250905090565b60606000821415611065576040518060400160405280600181526020017f30000000000000000000000000000000000000000000000000000000000000008152509050611179565b600082905060005b6000821461109757808061108090612050565b915050600a8261109091906120c8565b915061106d565b60008167ffffffffffffffff8111156110b3576110b2611812565b5b6040519080825280601f01601f1916602001820160405280156110e55781602001600182028036833780820191505090505b5090505b60008514611172576001826110fe9190611ec8565b9150600a8561110d91906120f9565b60306111199190611efc565b60f81b81838151811061112f5761112e61212a565b5b60200101907effffffffffffffffffffffffffffffffffffffffffffffffffffffffffffff1916908160001a905350600a8561116b91906120c8565b94506110e9565b8093505050505b919050565b60008073ffffffffffffffffffffffffffffffffffffffff166002600084815260200190815260200160002060009054906101000a900473ffffffffffffffffffffffffffffffffffffffff1673ffffffffffffffffffffffffffffffffffffffff1614159050919050565b505050565b505050565b60006112158473ffffffffffffffffffffffffffffffffffffffff1661138b565b1561137e578373ffffffffffffffffffffffffffffffffffffffff1663150b7a0261123e610a80565b8786866040518563ffffffff1660e01b815260040161126094939291906121ae565b602060405180830381600087803b15801561127a57600080fd5b505af19250505080156112ab57506040513d601f19601f820116820180604052508101906112a8919061220f565b60015b61132e573d80600081146112db576040519150601f19603f3d011682016040523d82523d6000602084013e6112e0565b606091505b50600081511415611326576040517f08c379a000000000000000000000000000000000000000000000000000000000815260040161131d90612030565b60405180910390fd5b805181602001fd5b63150b7a0260e01b7bffffffffffffffffffffffffffffffffffffffffffffffffffffffff1916817bffffffffffffffffffffffffffffffffffffffffffffffffffffffff191614915050611383565b600190505b949350505050565b6000808273ffffffffffffffffffffffffffffffffffffffff163b119050919050565b6000604051905090565b600080fd5b600080fd5b60007fffffffff0000000000000000000000000000000000000000000000000000000082169050919050565b6113f7816113c2565b811461140257600080fd5b50565b600081359050611414816113ee565b92915050565b6000602082840312156114305761142f6113b8565b5b600061143e84828501611405565b91505092915050565b60008115159050919050565b61145c81611447565b82525050565b60006020820190506114776000830184611453565b92915050565b600081519050919050565b600082825260208201905092915050565b60005b838110156114b757808201518184015260208101905061149c565b838111156114c6576000848401525b50505050565b6000601f19601f8301169050919050565b60006114e88261147d565b6114f28185611488565b9350611502818560208601611499565b61150b816114cc565b840191505092915050565b6000602082019050818103600083015261153081846114dd565b905092915050565b6000819050919050565b61154b81611538565b811461155657600080fd5b50565b60008135905061156881611542565b92915050565b600060208284031215611584576115836113b8565b5b600061159284828501611559565b91505092915050565b600073ffffffffffffffffffffffffffffffffffffffff82169050919050565b60006115c68261159b565b9050919050565b6115d6816115bb565b82525050565b60006020820190506115f160008301846115cd565b92915050565b611600816115bb565b811461160b57600080fd5b50565b60008135905061161d816115f7565b92915050565b6000806040838503121561163a576116396113b8565b5b60006116488582860161160e565b925050602061165985828601611559565b9150509250929050565b60008060006060848603121561167c5761167b6113b8565b5b600061168a8682870161160e565b935050602061169b8682870161160e565b92505060406116ac86828701611559565b9150509250925092565b600063ffffffff82169050919050565b6116cf816116b6565b81146116da57600080fd5b50565b6000813590506116ec816116c6565b92915050565b60008060006060848603121561170b5761170a6113b8565b5b60006117198682870161160e565b935050602061172a8682870161160e565b925050604061173b868287016116dd565b9150509250925092565b60006020828403121561175b5761175a6113b8565b5b60006117698482850161160e565b91505092915050565b61177b81611538565b82525050565b60006020820190506117966000830184611772565b92915050565b6117a581611447565b81146117b057600080fd5b50565b6000813590506117c28161179c565b92915050565b600080604083850312156117df576117de6113b8565b5b60006117ed8582860161160e565b92505060206117fe858286016117b3565b9150509250929050565b600080fd5b600080fd5b7f4e487b7100000000000000000000000000000000000000000000000000000000600052604160045260246000fd5b61184a826114cc565b810181811067ffffffffffffffff8211171561186957611868611812565b5b80604052505050565b600061187c6113ae565b90506118888282611841565b919050565b600067ffffffffffffffff8211156118a8576118a7611812565b5b6118b1826114cc565b9050602081019050919050565b82818337600083830152505050565b60006118e06118db8461188d565b611872565b9050828152602081018484840111156118fc576118fb61180d565b5b6119078482856118be565b509392505050565b600082601f83011261192457611923611808565b5b81356119348482602086016118cd565b91505092915050565b60008060008060808587031215611957576119566113b8565b5b60006119658782880161160e565b94505060206119768782880161160e565b935050604061198787828801611559565b925050606085013567ffffffffffffffff8111156119a8576119a76113bd565b5b6119b48782880161190f565b91505092959194509250565b600080604083850312156119d7576119d66113b8565b5b60006119e58582860161160e565b92505060206119f68582860161160e565b9150509250929050565b7f4e487b7100000000000000000000000000000000000000000000000000000000600052602260045260246000fd5b60006002820490506001821680611a4757607f821691505b60208210811415611a5b57611a5a611a00565b5b50919050565b7f4552433732313a20617070726f76616c20746f2063757272656e74206f776e6560008201527f7200000000000000000000000000000000000000000000000000000000000000602082015250565b6000611abd602183611488565b9150611ac882611a61565b604082019050919050565b60006020820190508181036000830152611aec81611ab0565b9050919050565b7f4552433732313a20617070726f76652063616c6c6572206973206e6f7420746f60008201527f6b656e206f776e6572206e6f7220617070726f76656420666f7220616c6c0000602082015250565b6000611b4f603e83611488565b9150611b5a82611af3565b604082019050919050565b60006020820190508181036000830152611b7e81611b42565b9050919050565b7f4552433732313a2063616c6c6572206973206e6f7420746f6b656e206f776e6560008201527f72206e6f7220617070726f766564000000000000000000000000000000000000602082015250565b6000611be1602e83611488565b9150611bec82611b85565b604082019050919050565b60006020820190508181036000830152611c1081611bd4565b9050919050565b7f4552433732313a20696e76616c696420746f6b656e2049440000000000000000600082015250565b6000611c4d601883611488565b9150611c5882611c17565b602082019050919050565b60006020820190508181036000830152611c7c81611c40565b9050919050565b7f4552433732313a2061646472657373207a65726f206973206e6f74206120766160008201527f6c6964206f776e65720000000000000000000000000000000000000000000000602082015250565b6000611cdf602983611488565b9150611cea82611c83565b604082019050919050565b60006020820190508181036000830152611d0e81611cd2565b9050919050565b600081905092915050565b6000611d2b8261147d565b611d358185611d15565b9350611d45818560208601611499565b80840191505092915050565b6000611d5d8285611d20565b9150611d698284611d20565b91508190509392505050565b7f4552433732313a207472616e736665722066726f6d20696e636f72726563742060008201527f6f776e6572000000000000000000000000000000000000000000000000000000602082015250565b6000611dd1602583611488565b9150611ddc82611d75565b604082019050919050565b60006020820190508181036000830152611e0081611dc4565b9050919050565b7f4552433732313a207472616e7366657220746f20746865207a65726f2061646460008201527f7265737300000000000000000000000000000000000000000000000000000000602082015250565b6000611e63602483611488565b9150611e6e82611e07565b604082019050919050565b60006020820190508181036000830152611e9281611e56565b9050919050565b7f4e487b7100000000000000000000000000000000000000000000000000000000600052601160045260246000fd5b6000611ed382611538565b9150611ede83611538565b925082821015611ef157611ef0611e99565b5b828203905092915050565b6000611f0782611538565b9150611f1283611538565b9250827fffffffffffffffffffffffffffffffffffffffffffffffffffffffffffffffff03821115611f4757611f46611e99565b5b828201905092915050565b7f4552433732313a20617070726f766520746f2063616c6c657200000000000000600082015250565b6000611f88601983611488565b9150611f9382611f52565b602082019050919050565b60006020820190508181036000830152611fb781611f7b565b9050919050565b7f4552433732313a207472616e7366657220746f206e6f6e20455243373231526560008201527f63656976657220696d706c656d656e7465720000000000000000000000000000602082015250565b600061201a603283611488565b915061202582611fbe565b604082019050919050565b600060208201905081810360008301526120498161200d565b9050919050565b600061205b82611538565b91507fffffffffffffffffffffffffffffffffffffffffffffffffffffffffffffffff82141561208e5761208d611e99565b5b600182019050919050565b7f4e487b7100000000000000000000000000000000000000000000000000000000600052601260045260246000fd5b60006120d382611538565b91506120de83611538565b9250826120ee576120ed612099565b5b828204905092915050565b600061210482611538565b915061210f83611538565b92508261211f5761211e612099565b5b828206905092915050565b7f4e487b7100000000000000000000000000000000000000000000000000000000600052603260045260246000fd5b600081519050919050565b600082825260208201905092915050565b600061218082612159565b61218a8185612164565b935061219a818560208601611499565b6121a3816114cc565b840191505092915050565b60006080820190506121c360008301876115cd565b6121d060208301866115cd565b6121dd6040830185611772565b81810360608301526121ef8184612175565b905095945050505050565b600081519050612209816113ee565b92915050565b600060208284031215612225576122246113b8565b5b6000612233848285016121fa565b9150509291505056fea264697066735822122059678e7639527f87f201acd893c040547f93a62b93df89b59bf7f58f85d32ad064736f6c63430008090033",
  "linkReferences": {},
  "deployedLinkReferences": {}
}