{
  "_format": "hh-sol-artifact-1",
  "contractName": "StudentSocietyDAO",
  "sourceName": "contracts/StudentSocietyDAO.sol",
  "abi": [
    {
      "inputs": [],
      "stateMutability": "nonpayable",
      "type": "constructor"
    },
    {
      "anonymous": false,
      "inputs": [
        {
          "indexed": false,
          "internalType": "uint32",
          "name": "proposalIndex",
          "type": "uint32"
        }
      ],
      "name": "ProposalInitiated",
      "type": "event"
    },
    {
      "inputs": [],
      "name": "PROPOSAL_AMOUNT",
      "outputs": [
        {
          "internalType": "uint256",
          "name": "",
          "type": "uint256"
        }
      ],
      "stateMutability": "view",
      "type": "function"
    },
    {
      "inputs": [],
      "name": "VOTE_AMOUNT",
      "outputs": [
        {
          "internalType": "uint256",
          "name": "",
          "type": "uint256"
        }
      ],
      "stateMutability": "view",
      "type": "function"
    },
    {
      "inputs": [],
      "name": "check",
      "outputs": [],
      "stateMutability": "nonpayable",
      "type": "function"
    },
    {
      "inputs": [
        {
          "internalType": "address",
          "name": "account",
          "type": "address"
        }
      ],
      "name": "getMemberCount",
      "outputs": [
        {
          "internalType": "uint32",
          "name": "",
          "type": "uint32"
        }
      ],
      "stateMutability": "nonpayable",
      "type": "function"
    },
    {
      "inputs": [],
      "name": "getProposalID",
      "outputs": [
        {
          "components": [
            {
              "internalType": "uint32",
              "name": "index",
              "type": "uint32"
            },
            {
              "internalType": "address",
              "name": "proposer",
              "type": "address"
            },
            {
              "internalType": "uint256",
              "name": "startTime",
              "type": "uint256"
            },
            {
              "internalType": "uint256",
              "name": "duration",
              "type": "uint256"
            },
            {
              "internalType": "string",
              "name": "name",
              "type": "string"
            },
            {
              "internalType": "string",
              "name": "content",
              "type": "string"
            },
            {
              "internalType": "uint32",
              "name": "voteNumber",
              "type": "uint32"
            },
            {
              "internalType": "uint32",
              "name": "agreement",
              "type": "uint32"
            },
            {
              "internalType": "bool",
              "name": "isend",
              "type": "bool"
            },
            {
              "internalType": "bool",
              "name": "ispass",
              "type": "bool"
            }
          ],
          "internalType": "struct StudentSocietyDAO.data[]",
          "name": "",
          "type": "tuple[]"
        }
      ],
      "stateMutability": "nonpayable",
      "type": "function"
    },
    {
      "inputs": [],
      "name": "getProposalNumber",
      "outputs": [
        {
          "internalType": "uint32",
          "name": "",
          "type": "uint32"
        }
      ],
      "stateMutability": "nonpayable",
      "type": "function"
    },
    {
      "inputs": [],
      "name": "myERC721",
      "outputs": [
        {
          "internalType": "contract MyERC721",
          "name": "",
          "type": "address"
        }
      ],
      "stateMutability": "view",
      "type": "function"
    },
    {
      "inputs": [
        {
          "internalType": "string",
          "name": "name",
          "type": "string"
        },
        {
          "internalType": "string",
          "name": "content",
          "type": "string"
        },
        {
          "internalType": "uint256",
          "name": "duration",
          "type": "uint256"
        }
      ],
      "name": "newProposal",
      "outputs": [],
      "stateMutability": "nonpayable",
      "type": "function"
    },
    {
      "inputs": [],
      "name": "proposalNumber",
      "outputs": [
        {
          "internalType": "uint32",
          "name": "",
          "type": "uint32"
        }
      ],
      "stateMutability": "view",
      "type": "function"
    },
    {
      "inputs": [],
      "name": "studentERC20",
      "outputs": [
        {
          "internalType": "contract MyERC20",
          "name": "",
          "type": "address"
        }
      ],
      "stateMutability": "view",
      "type": "function"
    },
    {
      "inputs": [
        {
          "internalType": "bool",
          "name": "option",
          "type": "bool"
        },
        {
          "internalType": "uint32",
          "name": "proposalid",
          "type": "uint32"
        }
      ],
      "name": "vote",
      "outputs": [],
      "stateMutability": "nonpayable",
      "type": "function"
    }
  ],
  "bytecode": "0x60806040523480156200001157600080fd5b50604051620000209062000127565b6200002b90620001f4565b604051809103906000f08015801562000048573d6000803e3d6000fd5b50600060046101000a81548173ffffffffffffffffffffffffffffffffffffffff021916908373ffffffffffffffffffffffffffffffffffffffff160217905550604051620000979062000135565b620000a290620001f4565b604051809103906000f080158015620000bf573d6000803e3d6000fd5b50600160006101000a81548173ffffffffffffffffffffffffffffffffffffffff021916908373ffffffffffffffffffffffffffffffffffffffff16021790555060008060006101000a81548163ffffffff021916908363ffffffff1602179055506200022b565b611c6f80620022b183390190565b6129008062003f2083390190565b600082825260208201905092915050565b7f5a4a55546f6b656e000000000000000000000000000000000000000000000000600082015250565b60006200018c60088362000143565b9150620001998262000154565b602082019050919050565b7f5a4a55546f6b656e53796d626f6c000000000000000000000000000000000000600082015250565b6000620001dc600e8362000143565b9150620001e982620001a4565b602082019050919050565b600060408201905081810360008301526200020f816200017d565b905081810360208301526200022481620001cd565b9050919050565b612076806200023b6000396000f3fe608060405234801561001057600080fd5b50600436106100a95760003560e01c80638f334e8d116100715780638f334e8d14610142578063919840ad14610160578063a042d2ec1461016a578063ca8ef89f14610186578063cb896e4f146101a4578063df7a6c76146101d4576100a9565b806320289077146100ae57806320768ee8146100cc5780633c4d81c2146100ea578063500ad6a4146101065780636c3fbb2d14610124575b600080fd5b6100b66101f2565b6040516100c3919061154d565b60405180910390f35b6100d461020b565b6040516100e19190611828565b60405180910390f35b61010460048036038101906100ff91906119bf565b61089e565b005b61010e610b08565b60405161011b919061154d565b60405180910390f35b61012c610b1c565b6040516101399190611aa9565b60405180910390f35b61014a610b42565b6040516101579190611ae5565b60405180910390f35b610168610b68565b005b610184600480360381019061017f9190611b58565b610f93565b005b61018e6112e8565b60405161019b9190611ba7565b60405180910390f35b6101be60048036038101906101b99190611bee565b6112ed565b6040516101cb919061154d565b60405180910390f35b6101dc611346565b6040516101e99190611ba7565b60405180910390f35b60008060009054906101000a900463ffffffff16905090565b60606004600061021b919061134c565b6000600190505b60008054906101000a900463ffffffff1663ffffffff168163ffffffff1611610609576000600260008363ffffffff1663ffffffff168152602001908152602001600020905060046040518061014001604052808360000160009054906101000a900463ffffffff1663ffffffff1681526020018360000160049054906101000a900473ffffffffffffffffffffffffffffffffffffffff1673ffffffffffffffffffffffffffffffffffffffff16815260200183600101548152602001836002015481526020018360030180546102f990611c4a565b80601f016020809104026020016040519081016040528092919081815260200182805461032590611c4a565b80156103725780601f1061034757610100808354040283529160200191610372565b820191906000526020600020905b81548152906001019060200180831161035557829003601f168201915b5050505050815260200183600401805461038b90611c4a565b80601f01602080910402602001604051908101604052809291908181526020018280546103b790611c4a565b80156104045780601f106103d957610100808354040283529160200191610404565b820191906000526020600020905b8154815290600101906020018083116103e757829003601f168201915b505050505081526020018360050160009054906101000a900463ffffffff1663ffffffff1681526020018360050160049054906101000a900463ffffffff1663ffffffff1681526020018360050160089054906101000a900460ff16151581526020018360050160099054906101000a900460ff161515815250908060018154018082558091505060019003906000526020600020906006020160009091909190915060008201518160000160006101000a81548163ffffffff021916908363ffffffff16021790555060208201518160000160046101000a81548173ffffffffffffffffffffffffffffffffffffffff021916908373ffffffffffffffffffffffffffffffffffffffff16021790555060408201518160010155606082015181600201556080820151816003019080519060200190610545929190611370565b5060a0820151816004019080519060200190610562929190611370565b5060c08201518160050160006101000a81548163ffffffff021916908363ffffffff16021790555060e08201518160050160046101000a81548163ffffffff021916908363ffffffff1602179055506101008201518160050160086101000a81548160ff0219169083151502179055506101208201518160050160096101000a81548160ff021916908315150217905550505050808061060190611cab565b915050610222565b506004805480602002602001604051908101604052809291908181526020016000905b828210156108955783829060005260206000209060060201604051806101400160405290816000820160009054906101000a900463ffffffff1663ffffffff1663ffffffff1681526020016000820160049054906101000a900473ffffffffffffffffffffffffffffffffffffffff1673ffffffffffffffffffffffffffffffffffffffff1673ffffffffffffffffffffffffffffffffffffffff16815260200160018201548152602001600282015481526020016003820180546106f090611c4a565b80601f016020809104026020016040519081016040528092919081815260200182805461071c90611c4a565b80156107695780601f1061073e57610100808354040283529160200191610769565b820191906000526020600020905b81548152906001019060200180831161074c57829003601f168201915b5050505050815260200160048201805461078290611c4a565b80601f01602080910402602001604051908101604052809291908181526020018280546107ae90611c4a565b80156107fb5780601f106107d0576101008083540402835291602001916107fb565b820191906000526020600020905b8154815290600101906020018083116107de57829003601f168201915b505050505081526020016005820160009054906101000a900463ffffffff1663ffffffff1663ffffffff1681526020016005820160049054906101000a900463ffffffff1663ffffffff1663ffffffff1681526020016005820160089054906101000a900460ff161515151581526020016005820160099054906101000a900460ff1615151515815250508152602001906001019061062c565b50505050905090565b600060049054906101000a900473ffffffffffffffffffffffffffffffffffffffff1673ffffffffffffffffffffffffffffffffffffffff166323b872dd33306101f46040518463ffffffff1660e01b81526004016108ff93929190611ce7565b602060405180830381600087803b15801561091957600080fd5b505af115801561092d573d6000803e3d6000fd5b505050506040513d601f19601f820116820180604052508101906109519190611d33565b5060008081819054906101000a900463ffffffff168092919061097390611cab565b91906101000a81548163ffffffff021916908363ffffffff160217905550506000600260008060009054906101000a900463ffffffff1663ffffffff1663ffffffff168152602001908152602001600020905060008054906101000a900463ffffffff168160000160006101000a81548163ffffffff021916908363ffffffff16021790555060008160050160046101000a81548163ffffffff021916908363ffffffff16021790555082816004019080519060200190610a35929190611370565b5081816002018190555060008160050160086101000a81548160ff02191690831515021790555060008160050160096101000a81548160ff02191690831515021790555083816003019080519060200190610a91929190611370565b50338160000160046101000a81548173ffffffffffffffffffffffffffffffffffffffff021916908373ffffffffffffffffffffffffffffffffffffffff16021790555042816001018190555060008160050160006101000a81548163ffffffff021916908363ffffffff16021790555050505050565b60008054906101000a900463ffffffff1681565b600060049054906101000a900473ffffffffffffffffffffffffffffffffffffffff1681565b600160009054906101000a900473ffffffffffffffffffffffffffffffffffffffff1681565b6000600190505b60008054906101000a900463ffffffff1663ffffffff168163ffffffff1611610f90576000600260008363ffffffff1663ffffffff1681526020019081526020016000209050600015158160050160089054906101000a900460ff161515148015610bed57504281600201548260010154610bea9190611d60565b11155b15610f7c5760018160050160086101000a81548160ff02191690831515021790555060028160050160009054906101000a900463ffffffff16610c309190611de5565b63ffffffff168160050160049054906101000a900463ffffffff1663ffffffff161115610f7b5760018160050160096101000a81548160ff021916908315150217905550600060018260050160009054906101000a900463ffffffff166002610c999190611e16565b610ca39190611e54565b9050600060049054906101000a900473ffffffffffffffffffffffffffffffffffffffff1673ffffffffffffffffffffffffffffffffffffffff1663a9059cbb8360000160049054906101000a900473ffffffffffffffffffffffffffffffffffffffff1660328463ffffffff16610d1b9190611e88565b6101f4610d289190611d60565b6040518363ffffffff1660e01b8152600401610d45929190611ee2565b602060405180830381600087803b158015610d5f57600080fd5b505af1158015610d73573d6000803e3d6000fd5b505050506040513d601f19601f82011682018060405250810190610d979190611d33565b50600360008360000160049054906101000a900473ffffffffffffffffffffffffffffffffffffffff1673ffffffffffffffffffffffffffffffffffffffff1673ffffffffffffffffffffffffffffffffffffffff168152602001908152602001600020600081819054906101000a900463ffffffff1680929190610e1b90611cab565b91906101000a81548163ffffffff021916908363ffffffff16021790555050600060038060008560000160049054906101000a900473ffffffffffffffffffffffffffffffffffffffff1673ffffffffffffffffffffffffffffffffffffffff1673ffffffffffffffffffffffffffffffffffffffff16815260200190815260200160002060009054906101000a900463ffffffff16610ebb9190611f0b565b63ffffffff161415610f7957600160009054906101000a900473ffffffffffffffffffffffffffffffffffffffff1673ffffffffffffffffffffffffffffffffffffffff1663d8cb4aa38360000160049054906101000a900473ffffffffffffffffffffffffffffffffffffffff166040518263ffffffff1660e01b8152600401610f469190611f3c565b600060405180830381600087803b158015610f6057600080fd5b505af1158015610f74573d6000803e3d6000fd5b505050505b505b5b508080610f8890611cab565b915050610b6f565b50565b610f9b610b68565b600060049054906101000a900473ffffffffffffffffffffffffffffffffffffffff1673ffffffffffffffffffffffffffffffffffffffff166323b872dd333060326040518463ffffffff1660e01b8152600401610ffb93929190611ce7565b602060405180830381600087803b15801561101557600080fd5b505af1158015611029573d6000803e3d6000fd5b505050506040513d601f19601f8201168201806040525081019061104d9190611d33565b506000600260008363ffffffff1663ffffffff1681526020019081526020016000209050600015158160070160003373ffffffffffffffffffffffffffffffffffffffff1673ffffffffffffffffffffffffffffffffffffffff16815260200190815260200160002060009054906101000a900460ff16151514611106576040517f08c379a00000000000000000000000000000000000000000000000000000000081526004016110fd90611fb4565b60405180910390fd5b60018160070160003373ffffffffffffffffffffffffffffffffffffffff1673ffffffffffffffffffffffffffffffffffffffff16815260200190815260200160002060006101000a81548160ff021916908315150217905550600115158160050160089054906101000a900460ff16151514158015611198575042816002015482600101546111969190611d60565b115b6111d7576040517f08c379a00000000000000000000000000000000000000000000000000000000081526004016111ce90612020565b60405180910390fd5b600015158160050160089054906101000a900460ff16151514156112e35780600501600081819054906101000a900463ffffffff168092919061121990611cab565b91906101000a81548163ffffffff021916908363ffffffff160217905550506001151583151514156112895780600501600481819054906101000a900463ffffffff168092919061126990611cab565b91906101000a81548163ffffffff021916908363ffffffff160217905550505b828160060160003373ffffffffffffffffffffffffffffffffffffffff1673ffffffffffffffffffffffffffffffffffffffff16815260200190815260200160002060006101000a81548160ff0219169083151502179055505b505050565b603281565b6000600360008373ffffffffffffffffffffffffffffffffffffffff1673ffffffffffffffffffffffffffffffffffffffff16815260200190815260200160002060009054906101000a900463ffffffff169050919050565b6101f481565b508054600082556006029060005260206000209081019061136d91906113f6565b50565b82805461137c90611c4a565b90600052602060002090601f01602090048101928261139e57600085556113e5565b82601f106113b757805160ff19168380011785556113e5565b828001600101855582156113e5579182015b828111156113e45782518255916020019190600101906113c9565b5b5090506113f291906114d1565b5090565b5b808211156114cd57600080820160006101000a81549063ffffffff02191690556000820160046101000a81549073ffffffffffffffffffffffffffffffffffffffff02191690556001820160009055600282016000905560038201600061145e91906114ee565b60048201600061146e91906114ee565b6005820160006101000a81549063ffffffff02191690556005820160046101000a81549063ffffffff02191690556005820160086101000a81549060ff02191690556005820160096101000a81549060ff0219169055506006016113f7565b5090565b5b808211156114ea5760008160009055506001016114d2565b5090565b5080546114fa90611c4a565b6000825580601f1061150c575061152b565b601f01602090049060005260206000209081019061152a91906114d1565b5b50565b600063ffffffff82169050919050565b6115478161152e565b82525050565b6000602082019050611562600083018461153e565b92915050565b600081519050919050565b600082825260208201905092915050565b6000819050602082019050919050565b61159d8161152e565b82525050565b600073ffffffffffffffffffffffffffffffffffffffff82169050919050565b60006115ce826115a3565b9050919050565b6115de816115c3565b82525050565b6000819050919050565b6115f7816115e4565b82525050565b600081519050919050565b600082825260208201905092915050565b60005b8381101561163757808201518184015260208101905061161c565b83811115611646576000848401525b50505050565b6000601f19601f8301169050919050565b6000611668826115fd565b6116728185611608565b9350611682818560208601611619565b61168b8161164c565b840191505092915050565b60008115159050919050565b6116ab81611696565b82525050565b6000610140830160008301516116ca6000860182611594565b5060208301516116dd60208601826115d5565b5060408301516116f060408601826115ee565b50606083015161170360608601826115ee565b506080830151848203608086015261171b828261165d565b91505060a083015184820360a0860152611735828261165d565b91505060c083015161174a60c0860182611594565b5060e083015161175d60e0860182611594565b506101008301516117726101008601826116a2565b506101208301516117876101208601826116a2565b508091505092915050565b600061179e83836116b1565b905092915050565b6000602082019050919050565b60006117be82611568565b6117c88185611573565b9350836020820285016117da85611584565b8060005b8581101561181657848403895281516117f78582611792565b9450611802836117a6565b925060208a019950506001810190506117de565b50829750879550505050505092915050565b6000602082019050818103600083015261184281846117b3565b905092915050565b6000604051905090565b600080fd5b600080fd5b600080fd5b600080fd5b7f4e487b7100000000000000000000000000000000000000000000000000000000600052604160045260246000fd5b6118a08261164c565b810181811067ffffffffffffffff821117156118bf576118be611868565b5b80604052505050565b60006118d261184a565b90506118de8282611897565b919050565b600067ffffffffffffffff8211156118fe576118fd611868565b5b6119078261164c565b9050602081019050919050565b82818337600083830152505050565b6000611936611931846118e3565b6118c8565b90508281526020810184848401111561195257611951611863565b5b61195d848285611914565b509392505050565b600082601f83011261197a5761197961185e565b5b813561198a848260208601611923565b91505092915050565b61199c816115e4565b81146119a757600080fd5b50565b6000813590506119b981611993565b92915050565b6000806000606084860312156119d8576119d7611854565b5b600084013567ffffffffffffffff8111156119f6576119f5611859565b5b611a0286828701611965565b935050602084013567ffffffffffffffff811115611a2357611a22611859565b5b611a2f86828701611965565b9250506040611a40868287016119aa565b9150509250925092565b6000819050919050565b6000611a6f611a6a611a65846115a3565b611a4a565b6115a3565b9050919050565b6000611a8182611a54565b9050919050565b6000611a9382611a76565b9050919050565b611aa381611a88565b82525050565b6000602082019050611abe6000830184611a9a565b92915050565b6000611acf82611a76565b9050919050565b611adf81611ac4565b82525050565b6000602082019050611afa6000830184611ad6565b92915050565b611b0981611696565b8114611b1457600080fd5b50565b600081359050611b2681611b00565b92915050565b611b358161152e565b8114611b4057600080fd5b50565b600081359050611b5281611b2c565b92915050565b60008060408385031215611b6f57611b6e611854565b5b6000611b7d85828601611b17565b9250506020611b8e85828601611b43565b9150509250929050565b611ba1816115e4565b82525050565b6000602082019050611bbc6000830184611b98565b92915050565b611bcb816115c3565b8114611bd657600080fd5b50565b600081359050611be881611bc2565b92915050565b600060208284031215611c0457611c03611854565b5b6000611c1284828501611bd9565b91505092915050565b7f4e487b7100000000000000000000000000000000000000000000000000000000600052602260045260246000fd5b60006002820490506001821680611c6257607f821691505b60208210811415611c7657611c75611c1b565b5b50919050565b7f4e487b7100000000000000000000000000000000000000000000000000000000600052601160045260246000fd5b6000611cb68261152e565b915063ffffffff821415611ccd57611ccc611c7c565b5b600182019050919050565b611ce1816115c3565b82525050565b6000606082019050611cfc6000830186611cd8565b611d096020830185611cd8565b611d166040830184611b98565b949350505050565b600081519050611d2d81611b00565b92915050565b600060208284031215611d4957611d48611854565b5b6000611d5784828501611d1e565b91505092915050565b6000611d6b826115e4565b9150611d76836115e4565b9250827fffffffffffffffffffffffffffffffffffffffffffffffffffffffffffffffff03821115611dab57611daa611c7c565b5b828201905092915050565b7f4e487b7100000000000000000000000000000000000000000000000000000000600052601260045260246000fd5b6000611df08261152e565b9150611dfb8361152e565b925082611e0b57611e0a611db6565b5b828204905092915050565b6000611e218261152e565b9150611e2c8361152e565b92508163ffffffff0483118215151615611e4957611e48611c7c565b5b828202905092915050565b6000611e5f8261152e565b9150611e6a8361152e565b925082821015611e7d57611e7c611c7c565b5b828203905092915050565b6000611e93826115e4565b9150611e9e836115e4565b9250817fffffffffffffffffffffffffffffffffffffffffffffffffffffffffffffffff0483118215151615611ed757611ed6611c7c565b5b828202905092915050565b6000604082019050611ef76000830185611cd8565b611f046020830184611b98565b9392505050565b6000611f168261152e565b9150611f218361152e565b925082611f3157611f30611db6565b5b828206905092915050565b6000602082019050611f516000830184611cd8565b92915050565b600082825260208201905092915050565b7f5468697320757365722068617320766f74656420616c72656164790000000000600082015250565b6000611f9e601b83611f57565b9150611fa982611f68565b602082019050919050565b60006020820190508181036000830152611fcd81611f91565b9050919050565b7f566f74696e672068617320636c6f7365642e0000000000000000000000000000600082015250565b600061200a601283611f57565b915061201582611fd4565b602082019050919050565b6000602082019050818103600083015261203981611ffd565b905091905056fea2646970667358221220657dccf30fe3603d0f5b36be317d884b9f0cfd7051320f7344a020ba8a2d8b9364736f6c6343000809003360806040523480156200001157600080fd5b5060405162001c6f38038062001c6f83398181016040528101906200003791906200045a565b81818160039080519060200190620000519291906200020d565b5080600490805190602001906200006a9291906200020d565b5050506200008233620186a06200008a60201b60201c565b50506200068b565b600073ffffffffffffffffffffffffffffffffffffffff168273ffffffffffffffffffffffffffffffffffffffff161415620000fd576040517f08c379a0000000000000000000000000000000000000000000000000000000008152600401620000f49062000540565b60405180910390fd5b62000111600083836200020360201b60201c565b80600260008282546200012591906200059b565b92505081905550806000808473ffffffffffffffffffffffffffffffffffffffff1673ffffffffffffffffffffffffffffffffffffffff16815260200190815260200160002060008282546200017c91906200059b565b925050819055508173ffffffffffffffffffffffffffffffffffffffff16600073ffffffffffffffffffffffffffffffffffffffff167fddf252ad1be2c89b69c2b068fc378daa952ba7f163c4a11628f55a4df523b3ef83604051620001e3919062000609565b60405180910390a3620001ff600083836200020860201b60201c565b5050565b505050565b505050565b8280546200021b9062000655565b90600052602060002090601f0160209004810192826200023f57600085556200028b565b82601f106200025a57805160ff19168380011785556200028b565b828001600101855582156200028b579182015b828111156200028a5782518255916020019190600101906200026d565b5b5090506200029a91906200029e565b5090565b5b80821115620002b95760008160009055506001016200029f565b5090565b6000604051905090565b600080fd5b600080fd5b600080fd5b600080fd5b6000601f19601f8301169050919050565b7f4e487b7100000000000000000000000000000000000000000000000000000000600052604160045260246000fd5b6200032682620002db565b810181811067ffffffffffffffff82111715620003485762000347620002ec565b5b80604052505050565b60006200035d620002bd565b90506200036b82826200031b565b919050565b600067ffffffffffffffff8211156200038e576200038d620002ec565b5b6200039982620002db565b9050602081019050919050565b60005b83811015620003c6578082015181840152602081019050620003a9565b83811115620003d6576000848401525b50505050565b6000620003f3620003ed8462000370565b62000351565b905082815260208101848484011115620004125762000411620002d6565b5b6200041f848285620003a6565b509392505050565b600082601f8301126200043f576200043e620002d1565b5b815162000451848260208601620003dc565b91505092915050565b60008060408385031215620004745762000473620002c7565b5b600083015167ffffffffffffffff811115620004955762000494620002cc565b5b620004a38582860162000427565b925050602083015167ffffffffffffffff811115620004c757620004c6620002cc565b5b620004d58582860162000427565b9150509250929050565b600082825260208201905092915050565b7f45524332303a206d696e7420746f20746865207a65726f206164647265737300600082015250565b600062000528601f83620004df565b91506200053582620004f0565b602082019050919050565b600060208201905081810360008301526200055b8162000519565b9050919050565b6000819050919050565b7f4e487b7100000000000000000000000000000000000000000000000000000000600052601160045260246000fd5b6000620005a88262000562565b9150620005b58362000562565b9250827fffffffffffffffffffffffffffffffffffffffffffffffffffffffffffffffff03821115620005ed57620005ec6200056c565b5b828201905092915050565b620006038162000562565b82525050565b6000602082019050620006206000830184620005f8565b92915050565b7f4e487b7100000000000000000000000000000000000000000000000000000000600052602260045260246000fd5b600060028204905060018216806200066e57607f821691505b6020821081141562000685576200068462000626565b5b50919050565b6115d4806200069b6000396000f3fe608060405234801561001057600080fd5b50600436106100b45760003560e01c80633950935111610071578063395093511461017d57806370a08231146101ad57806395d89b41146101dd578063a457c2d7146101fb578063a9059cbb1461022b578063dd62ed3e1461025b576100b4565b806306fdde03146100b9578063095ea7b3146100d757806318160ddd1461010757806323b872dd14610125578063313ce567146101555780633884d63514610173575b600080fd5b6100c161028b565b6040516100ce9190610d90565b60405180910390f35b6100f160048036038101906100ec9190610e4b565b61031d565b6040516100fe9190610ea6565b60405180910390f35b61010f610340565b60405161011c9190610ed0565b60405180910390f35b61013f600480360381019061013a9190610eeb565b61034a565b60405161014c9190610ea6565b60405180910390f35b61015d610379565b60405161016a9190610f5a565b60405180910390f35b61017b610382565b005b61019760048036038101906101929190610e4b565b61047b565b6040516101a49190610ea6565b60405180910390f35b6101c760048036038101906101c29190610f75565b6104b2565b6040516101d49190610ed0565b60405180910390f35b6101e56104fa565b6040516101f29190610d90565b60405180910390f35b61021560048036038101906102109190610e4b565b61058c565b6040516102229190610ea6565b60405180910390f35b61024560048036038101906102409190610e4b565b610603565b6040516102529190610ea6565b60405180910390f35b61027560048036038101906102709190610fa2565b610626565b6040516102829190610ed0565b60405180910390f35b60606003805461029a90611011565b80601f01602080910402602001604051908101604052809291908181526020018280546102c690611011565b80156103135780601f106102e857610100808354040283529160200191610313565b820191906000526020600020905b8154815290600101906020018083116102f657829003601f168201915b5050505050905090565b6000806103286106ad565b90506103358185856106b5565b600191505092915050565b6000600254905090565b6000806103556106ad565b9050610362858285610880565b61036d85858561090c565b60019150509392505050565b60006012905090565b60001515600560003373ffffffffffffffffffffffffffffffffffffffff1673ffffffffffffffffffffffffffffffffffffffff16815260200190815260200160002060009054906101000a900460ff16151514610415576040517f08c379a000000000000000000000000000000000000000000000000000000000815260040161040c906110b5565b60405180910390fd5b61042133612710610b8d565b6001600560003373ffffffffffffffffffffffffffffffffffffffff1673ffffffffffffffffffffffffffffffffffffffff16815260200190815260200160002060006101000a81548160ff021916908315150217905550565b6000806104866106ad565b90506104a78185856104988589610626565b6104a29190611104565b6106b5565b600191505092915050565b60008060008373ffffffffffffffffffffffffffffffffffffffff1673ffffffffffffffffffffffffffffffffffffffff168152602001908152602001600020549050919050565b60606004805461050990611011565b80601f016020809104026020016040519081016040528092919081815260200182805461053590611011565b80156105825780601f1061055757610100808354040283529160200191610582565b820191906000526020600020905b81548152906001019060200180831161056557829003601f168201915b5050505050905090565b6000806105976106ad565b905060006105a58286610626565b9050838110156105ea576040517f08c379a00000000000000000000000000000000000000000000000000000000081526004016105e1906111cc565b60405180910390fd5b6105f782868684036106b5565b60019250505092915050565b60008061060e6106ad565b905061061b81858561090c565b600191505092915050565b6000600160008473ffffffffffffffffffffffffffffffffffffffff1673ffffffffffffffffffffffffffffffffffffffff16815260200190815260200160002060008373ffffffffffffffffffffffffffffffffffffffff1673ffffffffffffffffffffffffffffffffffffffff16815260200190815260200160002054905092915050565b600033905090565b600073ffffffffffffffffffffffffffffffffffffffff168373ffffffffffffffffffffffffffffffffffffffff161415610725576040517f08c379a000000000000000000000000000000000000000000000000000000000815260040161071c9061125e565b60405180910390fd5b600073ffffffffffffffffffffffffffffffffffffffff168273ffffffffffffffffffffffffffffffffffffffff161415610795576040517f08c379a000000000000000000000000000000000000000000000000000000000815260040161078c906112f0565b60405180910390fd5b80600160008573ffffffffffffffffffffffffffffffffffffffff1673ffffffffffffffffffffffffffffffffffffffff16815260200190815260200160002060008473ffffffffffffffffffffffffffffffffffffffff1673ffffffffffffffffffffffffffffffffffffffff168152602001908152602001600020819055508173ffffffffffffffffffffffffffffffffffffffff168373ffffffffffffffffffffffffffffffffffffffff167f8c5be1e5ebec7d5bd14f71427d1e84f3dd0314c0f7b2291e5b200ac8c7c3b925836040516108739190610ed0565b60405180910390a3505050565b600061088c8484610626565b90507fffffffffffffffffffffffffffffffffffffffffffffffffffffffffffffffff811461090657818110156108f8576040517f08c379a00000000000000000000000000000000000000000000000000000000081526004016108ef9061135c565b60405180910390fd5b61090584848484036106b5565b5b50505050565b600073ffffffffffffffffffffffffffffffffffffffff168373ffffffffffffffffffffffffffffffffffffffff16141561097c576040517f08c379a0000000000000000000000000000000000000000000000000000000008152600401610973906113ee565b60405180910390fd5b600073ffffffffffffffffffffffffffffffffffffffff168273ffffffffffffffffffffffffffffffffffffffff1614156109ec576040517f08c379a00000000000000000000000000000000000000000000000000000000081526004016109e390611480565b60405180910390fd5b6109f7838383610ced565b60008060008573ffffffffffffffffffffffffffffffffffffffff1673ffffffffffffffffffffffffffffffffffffffff16815260200190815260200160002054905081811015610a7d576040517f08c379a0000000000000000000000000000000000000000000000000000000008152600401610a7490611512565b60405180910390fd5b8181036000808673ffffffffffffffffffffffffffffffffffffffff1673ffffffffffffffffffffffffffffffffffffffff16815260200190815260200160002081905550816000808573ffffffffffffffffffffffffffffffffffffffff1673ffffffffffffffffffffffffffffffffffffffff1681526020019081526020016000206000828254610b109190611104565b925050819055508273ffffffffffffffffffffffffffffffffffffffff168473ffffffffffffffffffffffffffffffffffffffff167fddf252ad1be2c89b69c2b068fc378daa952ba7f163c4a11628f55a4df523b3ef84604051610b749190610ed0565b60405180910390a3610b87848484610cf2565b50505050565b600073ffffffffffffffffffffffffffffffffffffffff168273ffffffffffffffffffffffffffffffffffffffff161415610bfd576040517f08c379a0000000000000000000000000000000000000000000000000000000008152600401610bf49061157e565b60405180910390fd5b610c0960008383610ced565b8060026000828254610c1b9190611104565b92505081905550806000808473ffffffffffffffffffffffffffffffffffffffff1673ffffffffffffffffffffffffffffffffffffffff1681526020019081526020016000206000828254610c709190611104565b925050819055508173ffffffffffffffffffffffffffffffffffffffff16600073ffffffffffffffffffffffffffffffffffffffff167fddf252ad1be2c89b69c2b068fc378daa952ba7f163c4a11628f55a4df523b3ef83604051610cd59190610ed0565b60405180910390a3610ce960008383610cf2565b5050565b505050565b505050565b600081519050919050565b600082825260208201905092915050565b60005b83811015610d31578082015181840152602081019050610d16565b83811115610d40576000848401525b50505050565b6000601f19601f8301169050919050565b6000610d6282610cf7565b610d6c8185610d02565b9350610d7c818560208601610d13565b610d8581610d46565b840191505092915050565b60006020820190508181036000830152610daa8184610d57565b905092915050565b600080fd5b600073ffffffffffffffffffffffffffffffffffffffff82169050919050565b6000610de282610db7565b9050919050565b610df281610dd7565b8114610dfd57600080fd5b50565b600081359050610e0f81610de9565b92915050565b6000819050919050565b610e2881610e15565b8114610e3357600080fd5b50565b600081359050610e4581610e1f565b92915050565b60008060408385031215610e6257610e61610db2565b5b6000610e7085828601610e00565b9250506020610e8185828601610e36565b9150509250929050565b60008115159050919050565b610ea081610e8b565b82525050565b6000602082019050610ebb6000830184610e97565b92915050565b610eca81610e15565b82525050565b6000602082019050610ee56000830184610ec1565b92915050565b600080600060608486031215610f0457610f03610db2565b5b6000610f1286828701610e00565b9350506020610f2386828701610e00565b9250506040610f3486828701610e36565b9150509250925092565b600060ff82169050919050565b610f5481610f3e565b82525050565b6000602082019050610f6f6000830184610f4b565b92915050565b600060208284031215610f8b57610f8a610db2565b5b6000610f9984828501610e00565b91505092915050565b60008060408385031215610fb957610fb8610db2565b5b6000610fc785828601610e00565b9250506020610fd885828601610e00565b9150509250929050565b7f4e487b7100000000000000000000000000000000000000000000000000000000600052602260045260246000fd5b6000600282049050600182168061102957607f821691505b6020821081141561103d5761103c610fe2565b5b50919050565b7f5468697320757365722068617320636c61696d65642061697264726f7020616c60008201527f7265616479000000000000000000000000000000000000000000000000000000602082015250565b600061109f602583610d02565b91506110aa82611043565b604082019050919050565b600060208201905081810360008301526110ce81611092565b9050919050565b7f4e487b7100000000000000000000000000000000000000000000000000000000600052601160045260246000fd5b600061110f82610e15565b915061111a83610e15565b9250827fffffffffffffffffffffffffffffffffffffffffffffffffffffffffffffffff0382111561114f5761114e6110d5565b5b828201905092915050565b7f45524332303a2064656372656173656420616c6c6f77616e63652062656c6f7760008201527f207a65726f000000000000000000000000000000000000000000000000000000602082015250565b60006111b6602583610d02565b91506111c18261115a565b604082019050919050565b600060208201905081810360008301526111e5816111a9565b9050919050565b7f45524332303a20617070726f76652066726f6d20746865207a65726f2061646460008201527f7265737300000000000000000000000000000000000000000000000000000000602082015250565b6000611248602483610d02565b9150611253826111ec565b604082019050919050565b600060208201905081810360008301526112778161123b565b9050919050565b7f45524332303a20617070726f766520746f20746865207a65726f20616464726560008201527f7373000000000000000000000000000000000000000000000000000000000000602082015250565b60006112da602283610d02565b91506112e58261127e565b604082019050919050565b60006020820190508181036000830152611309816112cd565b9050919050565b7f45524332303a20696e73756666696369656e7420616c6c6f77616e6365000000600082015250565b6000611346601d83610d02565b915061135182611310565b602082019050919050565b6000602082019050818103600083015261137581611339565b9050919050565b7f45524332303a207472616e736665722066726f6d20746865207a65726f20616460008201527f6472657373000000000000000000000000000000000000000000000000000000602082015250565b60006113d8602583610d02565b91506113e38261137c565b604082019050919050565b60006020820190508181036000830152611407816113cb565b9050919050565b7f45524332303a207472616e7366657220746f20746865207a65726f206164647260008201527f6573730000000000000000000000000000000000000000000000000000000000602082015250565b600061146a602383610d02565b91506114758261140e565b604082019050919050565b600060208201905081810360008301526114998161145d565b9050919050565b7f45524332303a207472616e7366657220616d6f756e742065786365656473206260008201527f616c616e63650000000000000000000000000000000000000000000000000000602082015250565b60006114fc602683610d02565b9150611507826114a0565b604082019050919050565b6000602082019050818103600083015261152b816114ef565b9050919050565b7f45524332303a206d696e7420746f20746865207a65726f206164647265737300600082015250565b6000611568601f83610d02565b915061157382611532565b602082019050919050565b600060208201905081810360008301526115978161155b565b905091905056fea2646970667358221220eae52e7b14709c0ff2341fcc549b5059e74e3820b28a9b0c866fc7f92dfdb0f364736f6c6343000809003360806040526000600660006101000a81548163ffffffff021916908363ffffffff1602179055503480156200003357600080fd5b5060405162002900380380620029008339818101604052810190620000599190620002e4565b818181600090805190602001906200007392919062000097565b5080600190805190602001906200008c92919062000097565b5050505050620003ce565b828054620000a59062000398565b90600052602060002090601f016020900481019282620000c9576000855562000115565b82601f10620000e457805160ff191683800117855562000115565b8280016001018555821562000115579182015b8281111562000114578251825591602001919060010190620000f7565b5b50905062000124919062000128565b5090565b5b808211156200014357600081600090555060010162000129565b5090565b6000604051905090565b600080fd5b600080fd5b600080fd5b600080fd5b6000601f19601f8301169050919050565b7f4e487b7100000000000000000000000000000000000000000000000000000000600052604160045260246000fd5b620001b08262000165565b810181811067ffffffffffffffff82111715620001d257620001d162000176565b5b80604052505050565b6000620001e762000147565b9050620001f58282620001a5565b919050565b600067ffffffffffffffff82111562000218576200021762000176565b5b620002238262000165565b9050602081019050919050565b60005b838110156200025057808201518184015260208101905062000233565b8381111562000260576000848401525b50505050565b60006200027d6200027784620001fa565b620001db565b9050828152602081018484840111156200029c576200029b62000160565b5b620002a984828562000230565b509392505050565b600082601f830112620002c957620002c86200015b565b5b8151620002db84826020860162000266565b91505092915050565b60008060408385031215620002fe57620002fd62000151565b5b600083015167ffffffffffffffff8111156200031f576200031e62000156565b5b6200032d85828601620002b1565b925050602083015167ffffffffffffffff81111562000351576200035062000156565b5b6200035f85828601620002b1565b9150509250929050565b7f4e487b7100000000000000000000000000000000000000000000000000000000600052602260045260246000fd5b60006002820490506001821680620003b157607f821691505b60208210811415620003c857620003c762000369565b5b50919050565b61252280620003de6000396000f3fe608060405234801561001057600080fd5b50600436106100ea5760003560e01c806370a082311161008c578063b88d4fde11610066578063b88d4fde1461025b578063c87b56dd14610277578063d8cb4aa3146102a7578063e985e9c5146102c3576100ea565b806370a08231146101f157806395d89b4114610221578063a22cb4651461023f576100ea565b8063095ea7b3116100c8578063095ea7b31461016d57806323b872dd1461018957806342842e0e146101a55780636352211e146101c1576100ea565b806301ffc9a7146100ef57806306fdde031461011f578063081812fc1461013d575b600080fd5b61010960048036038101906101049190611644565b6102f3565b604051610116919061168c565b60405180910390f35b6101276103d5565b6040516101349190611740565b60405180910390f35b61015760048036038101906101529190611798565b610467565b6040516101649190611806565b60405180910390f35b6101876004803603810190610182919061184d565b6104ad565b005b6101a3600480360381019061019e919061188d565b6105c5565b005b6101bf60048036038101906101ba919061188d565b610625565b005b6101db60048036038101906101d69190611798565b610645565b6040516101e89190611806565b60405180910390f35b61020b600480360381019061020691906118e0565b6106f7565b604051610218919061191c565b60405180910390f35b6102296107af565b6040516102369190611740565b60405180910390f35b61025960048036038101906102549190611963565b610841565b005b61027560048036038101906102709190611ad8565b610857565b005b610291600480360381019061028c9190611798565b6108b9565b60405161029e9190611740565b60405180910390f35b6102c160048036038101906102bc91906118e0565b610921565b005b6102dd60048036038101906102d89190611b5b565b610987565b6040516102ea919061168c565b60405180910390f35b60007f80ac58cd000000000000000000000000000000000000000000000000000000007bffffffffffffffffffffffffffffffffffffffffffffffffffffffff1916827bffffffffffffffffffffffffffffffffffffffffffffffffffffffff191614806103be57507f5b5e139f000000000000000000000000000000000000000000000000000000007bffffffffffffffffffffffffffffffffffffffffffffffffffffffff1916827bffffffffffffffffffffffffffffffffffffffffffffffffffffffff1916145b806103ce57506103cd82610a1b565b5b9050919050565b6060600080546103e490611bca565b80601f016020809104026020016040519081016040528092919081815260200182805461041090611bca565b801561045d5780601f106104325761010080835404028352916020019161045d565b820191906000526020600020905b81548152906001019060200180831161044057829003601f168201915b5050505050905090565b600061047282610a85565b6004600083815260200190815260200160002060009054906101000a900473ffffffffffffffffffffffffffffffffffffffff169050919050565b60006104b882610645565b90508073ffffffffffffffffffffffffffffffffffffffff168373ffffffffffffffffffffffffffffffffffffffff161415610529576040517f08c379a000000000000000000000000000000000000000000000000000000000815260040161052090611c6e565b60405180910390fd5b8073ffffffffffffffffffffffffffffffffffffffff16610548610ad0565b73ffffffffffffffffffffffffffffffffffffffff161480610577575061057681610571610ad0565b610987565b5b6105b6576040517f08c379a00000000000000000000000000000000000000000000000000000000081526004016105ad90611d00565b60405180910390fd5b6105c08383610ad8565b505050565b6105d66105d0610ad0565b82610b91565b610615576040517f08c379a000000000000000000000000000000000000000000000000000000000815260040161060c90611d92565b60405180910390fd5b610620838383610c26565b505050565b61064083838360405180602001604052806000815250610857565b505050565b6000806002600084815260200190815260200160002060009054906101000a900473ffffffffffffffffffffffffffffffffffffffff169050600073ffffffffffffffffffffffffffffffffffffffff168173ffffffffffffffffffffffffffffffffffffffff1614156106ee576040517f08c379a00000000000000000000000000000000000000000000000000000000081526004016106e590611dfe565b60405180910390fd5b80915050919050565b60008073ffffffffffffffffffffffffffffffffffffffff168273ffffffffffffffffffffffffffffffffffffffff161415610768576040517f08c379a000000000000000000000000000000000000000000000000000000000815260040161075f90611e90565b60405180910390fd5b600360008373ffffffffffffffffffffffffffffffffffffffff1673ffffffffffffffffffffffffffffffffffffffff168152602001908152602001600020549050919050565b6060600180546107be90611bca565b80601f01602080910402602001604051908101604052809291908181526020018280546107ea90611bca565b80156108375780601f1061080c57610100808354040283529160200191610837565b820191906000526020600020905b81548152906001019060200180831161081a57829003601f168201915b5050505050905090565b61085361084c610ad0565b8383610e8d565b5050565b610868610862610ad0565b83610b91565b6108a7576040517f08c379a000000000000000000000000000000000000000000000000000000000815260040161089e90611d92565b60405180910390fd5b6108b384848484610ffa565b50505050565b60606108c482610a85565b60006108ce611056565b905060008151116108ee5760405180602001604052806000815250610919565b806108f88461106d565b604051602001610909929190611eec565b6040516020818303038152906040525b915050919050565b61094381600660009054906101000a900463ffffffff1663ffffffff166111ce565b6006600081819054906101000a900463ffffffff168092919061096590611f4f565b91906101000a81548163ffffffff021916908363ffffffff1602179055505050565b6000600560008473ffffffffffffffffffffffffffffffffffffffff1673ffffffffffffffffffffffffffffffffffffffff16815260200190815260200160002060008373ffffffffffffffffffffffffffffffffffffffff1673ffffffffffffffffffffffffffffffffffffffff16815260200190815260200160002060009054906101000a900460ff16905092915050565b60007f01ffc9a7000000000000000000000000000000000000000000000000000000007bffffffffffffffffffffffffffffffffffffffffffffffffffffffff1916827bffffffffffffffffffffffffffffffffffffffffffffffffffffffff1916149050919050565b610a8e816113a8565b610acd576040517f08c379a0000000000000000000000000000000000000000000000000000000008152600401610ac490611dfe565b60405180910390fd5b50565b600033905090565b816004600083815260200190815260200160002060006101000a81548173ffffffffffffffffffffffffffffffffffffffff021916908373ffffffffffffffffffffffffffffffffffffffff160217905550808273ffffffffffffffffffffffffffffffffffffffff16610b4b83610645565b73ffffffffffffffffffffffffffffffffffffffff167f8c5be1e5ebec7d5bd14f71427d1e84f3dd0314c0f7b2291e5b200ac8c7c3b92560405160405180910390a45050565b600080610b9d83610645565b90508073ffffffffffffffffffffffffffffffffffffffff168473ffffffffffffffffffffffffffffffffffffffff161480610bdf5750610bde8185610987565b5b80610c1d57508373ffffffffffffffffffffffffffffffffffffffff16610c0584610467565b73ffffffffffffffffffffffffffffffffffffffff16145b91505092915050565b8273ffffffffffffffffffffffffffffffffffffffff16610c4682610645565b73ffffffffffffffffffffffffffffffffffffffff1614610c9c576040517f08c379a0000000000000000000000000000000000000000000000000000000008152600401610c9390611fee565b60405180910390fd5b600073ffffffffffffffffffffffffffffffffffffffff168273ffffffffffffffffffffffffffffffffffffffff161415610d0c576040517f08c379a0000000000000000000000000000000000000000000000000000000008152600401610d0390612080565b60405180910390fd5b610d17838383611414565b610d22600082610ad8565b6001600360008573ffffffffffffffffffffffffffffffffffffffff1673ffffffffffffffffffffffffffffffffffffffff1681526020019081526020016000206000828254610d7291906120a0565b925050819055506001600360008473ffffffffffffffffffffffffffffffffffffffff1673ffffffffffffffffffffffffffffffffffffffff1681526020019081526020016000206000828254610dc991906120d4565b92505081905550816002600083815260200190815260200160002060006101000a81548173ffffffffffffffffffffffffffffffffffffffff021916908373ffffffffffffffffffffffffffffffffffffffff160217905550808273ffffffffffffffffffffffffffffffffffffffff168473ffffffffffffffffffffffffffffffffffffffff167fddf252ad1be2c89b69c2b068fc378daa952ba7f163c4a11628f55a4df523b3ef60405160405180910390a4610e88838383611419565b505050565b8173ffffffffffffffffffffffffffffffffffffffff168373ffffffffffffffffffffffffffffffffffffffff161415610efc576040517f08c379a0000000000000000000000000000000000000000000000000000000008152600401610ef390612176565b60405180910390fd5b80600560008573ffffffffffffffffffffffffffffffffffffffff1673ffffffffffffffffffffffffffffffffffffffff16815260200190815260200160002060008473ffffffffffffffffffffffffffffffffffffffff1673ffffffffffffffffffffffffffffffffffffffff16815260200190815260200160002060006101000a81548160ff0219169083151502179055508173ffffffffffffffffffffffffffffffffffffffff168373ffffffffffffffffffffffffffffffffffffffff167f17307eab39ab6107e8899845ad3d59bd9653f200f220920489ca2b5937696c3183604051610fed919061168c565b60405180910390a3505050565b611005848484610c26565b6110118484848461141e565b611050576040517f08c379a000000000000000000000000000000000000000000000000000000000815260040161104790612208565b60405180910390fd5b50505050565b606060405180602001604052806000815250905090565b606060008214156110b5576040518060400160405280600181526020017f300000000000000000000000000000000000000000000000000000000000000081525090506111c9565b600082905060005b600082146110e75780806110d090612228565b915050600a826110e091906122a0565b91506110bd565b60008167ffffffffffffffff811115611103576111026119ad565b5b6040519080825280601f01601f1916602001820160405280156111355781602001600182028036833780820191505090505b5090505b600085146111c25760018261114e91906120a0565b9150600a8561115d91906122d1565b603061116991906120d4565b60f81b81838151811061117f5761117e612302565b5b60200101907effffffffffffffffffffffffffffffffffffffffffffffffffffffffffffff1916908160001a905350600a856111bb91906122a0565b9450611139565b8093505050505b919050565b600073ffffffffffffffffffffffffffffffffffffffff168273ffffffffffffffffffffffffffffffffffffffff16141561123e576040517f08c379a00000000000000000000000000000000000000000000000000000000081526004016112359061237d565b60405180910390fd5b611247816113a8565b15611287576040517f08c379a000000000000000000000000000000000000000000000000000000000815260040161127e906123e9565b60405180910390fd5b61129360008383611414565b6001600360008473ffffffffffffffffffffffffffffffffffffffff1673ffffffffffffffffffffffffffffffffffffffff16815260200190815260200160002060008282546112e391906120d4565b92505081905550816002600083815260200190815260200160002060006101000a81548173ffffffffffffffffffffffffffffffffffffffff021916908373ffffffffffffffffffffffffffffffffffffffff160217905550808273ffffffffffffffffffffffffffffffffffffffff16600073ffffffffffffffffffffffffffffffffffffffff167fddf252ad1be2c89b69c2b068fc378daa952ba7f163c4a11628f55a4df523b3ef60405160405180910390a46113a460008383611419565b5050565b60008073ffffffffffffffffffffffffffffffffffffffff166002600084815260200190815260200160002060009054906101000a900473ffffffffffffffffffffffffffffffffffffffff1673ffffffffffffffffffffffffffffffffffffffff1614159050919050565b505050565b505050565b600061143f8473ffffffffffffffffffffffffffffffffffffffff166115b5565b156115a8578373ffffffffffffffffffffffffffffffffffffffff1663150b7a02611468610ad0565b8786866040518563ffffffff1660e01b815260040161148a949392919061245e565b602060405180830381600087803b1580156114a457600080fd5b505af19250505080156114d557506040513d601f19601f820116820180604052508101906114d291906124bf565b60015b611558573d8060008114611505576040519150601f19603f3d011682016040523d82523d6000602084013e61150a565b606091505b50600081511415611550576040517f08c379a000000000000000000000000000000000000000000000000000000000815260040161154790612208565b60405180910390fd5b805181602001fd5b63150b7a0260e01b7bffffffffffffffffffffffffffffffffffffffffffffffffffffffff1916817bffffffffffffffffffffffffffffffffffffffffffffffffffffffff1916149150506115ad565b600190505b949350505050565b6000808273ffffffffffffffffffffffffffffffffffffffff163b119050919050565b6000604051905090565b600080fd5b600080fd5b60007fffffffff0000000000000000000000000000000000000000000000000000000082169050919050565b611621816115ec565b811461162c57600080fd5b50565b60008135905061163e81611618565b92915050565b60006020828403121561165a576116596115e2565b5b60006116688482850161162f565b91505092915050565b60008115159050919050565b61168681611671565b82525050565b60006020820190506116a1600083018461167d565b92915050565b600081519050919050565b600082825260208201905092915050565b60005b838110156116e15780820151818401526020810190506116c6565b838111156116f0576000848401525b50505050565b6000601f19601f8301169050919050565b6000611712826116a7565b61171c81856116b2565b935061172c8185602086016116c3565b611735816116f6565b840191505092915050565b6000602082019050818103600083015261175a8184611707565b905092915050565b6000819050919050565b61177581611762565b811461178057600080fd5b50565b6000813590506117928161176c565b92915050565b6000602082840312156117ae576117ad6115e2565b5b60006117bc84828501611783565b91505092915050565b600073ffffffffffffffffffffffffffffffffffffffff82169050919050565b60006117f0826117c5565b9050919050565b611800816117e5565b82525050565b600060208201905061181b60008301846117f7565b92915050565b61182a816117e5565b811461183557600080fd5b50565b60008135905061184781611821565b92915050565b60008060408385031215611864576118636115e2565b5b600061187285828601611838565b925050602061188385828601611783565b9150509250929050565b6000806000606084860312156118a6576118a56115e2565b5b60006118b486828701611838565b93505060206118c586828701611838565b92505060406118d686828701611783565b9150509250925092565b6000602082840312156118f6576118f56115e2565b5b600061190484828501611838565b91505092915050565b61191681611762565b82525050565b6000602082019050611931600083018461190d565b92915050565b61194081611671565b811461194b57600080fd5b50565b60008135905061195d81611937565b92915050565b6000806040838503121561197a576119796115e2565b5b600061198885828601611838565b92505060206119998582860161194e565b9150509250929050565b600080fd5b600080fd5b7f4e487b7100000000000000000000000000000000000000000000000000000000600052604160045260246000fd5b6119e5826116f6565b810181811067ffffffffffffffff82111715611a0457611a036119ad565b5b80604052505050565b6000611a176115d8565b9050611a2382826119dc565b919050565b600067ffffffffffffffff821115611a4357611a426119ad565b5b611a4c826116f6565b9050602081019050919050565b82818337600083830152505050565b6000611a7b611a7684611a28565b611a0d565b905082815260208101848484011115611a9757611a966119a8565b5b611aa2848285611a59565b509392505050565b600082601f830112611abf57611abe6119a3565b5b8135611acf848260208601611a68565b91505092915050565b60008060008060808587031215611af257611af16115e2565b5b6000611b0087828801611838565b9450506020611b1187828801611838565b9350506040611b2287828801611783565b925050606085013567ffffffffffffffff811115611b4357611b426115e7565b5b611b4f87828801611aaa565b91505092959194509250565b60008060408385031215611b7257611b716115e2565b5b6000611b8085828601611838565b9250506020611b9185828601611838565b9150509250929050565b7f4e487b7100000000000000000000000000000000000000000000000000000000600052602260045260246000fd5b60006002820490506001821680611be257607f821691505b60208210811415611bf657611bf5611b9b565b5b50919050565b7f4552433732313a20617070726f76616c20746f2063757272656e74206f776e6560008201527f7200000000000000000000000000000000000000000000000000000000000000602082015250565b6000611c586021836116b2565b9150611c6382611bfc565b604082019050919050565b60006020820190508181036000830152611c8781611c4b565b9050919050565b7f4552433732313a20617070726f76652063616c6c6572206973206e6f7420746f60008201527f6b656e206f776e6572206e6f7220617070726f76656420666f7220616c6c0000602082015250565b6000611cea603e836116b2565b9150611cf582611c8e565b604082019050919050565b60006020820190508181036000830152611d1981611cdd565b9050919050565b7f4552433732313a2063616c6c6572206973206e6f7420746f6b656e206f776e6560008201527f72206e6f7220617070726f766564000000000000000000000000000000000000602082015250565b6000611d7c602e836116b2565b9150611d8782611d20565b604082019050919050565b60006020820190508181036000830152611dab81611d6f565b9050919050565b7f4552433732313a20696e76616c696420746f6b656e2049440000000000000000600082015250565b6000611de86018836116b2565b9150611df382611db2565b602082019050919050565b60006020820190508181036000830152611e1781611ddb565b9050919050565b7f4552433732313a2061646472657373207a65726f206973206e6f74206120766160008201527f6c6964206f776e65720000000000000000000000000000000000000000000000602082015250565b6000611e7a6029836116b2565b9150611e8582611e1e565b604082019050919050565b60006020820190508181036000830152611ea981611e6d565b9050919050565b600081905092915050565b6000611ec6826116a7565b611ed08185611eb0565b9350611ee08185602086016116c3565b80840191505092915050565b6000611ef88285611ebb565b9150611f048284611ebb565b91508190509392505050565b7f4e487b7100000000000000000000000000000000000000000000000000000000600052601160045260246000fd5b600063ffffffff82169050919050565b6000611f5a82611f3f565b915063ffffffff821415611f7157611f70611f10565b5b600182019050919050565b7f4552433732313a207472616e736665722066726f6d20696e636f72726563742060008201527f6f776e6572000000000000000000000000000000000000000000000000000000602082015250565b6000611fd86025836116b2565b9150611fe382611f7c565b604082019050919050565b6000602082019050818103600083015261200781611fcb565b9050919050565b7f4552433732313a207472616e7366657220746f20746865207a65726f2061646460008201527f7265737300000000000000000000000000000000000000000000000000000000602082015250565b600061206a6024836116b2565b91506120758261200e565b604082019050919050565b600060208201905081810360008301526120998161205d565b9050919050565b60006120ab82611762565b91506120b683611762565b9250828210156120c9576120c8611f10565b5b828203905092915050565b60006120df82611762565b91506120ea83611762565b9250827fffffffffffffffffffffffffffffffffffffffffffffffffffffffffffffffff0382111561211f5761211e611f10565b5b828201905092915050565b7f4552433732313a20617070726f766520746f2063616c6c657200000000000000600082015250565b60006121606019836116b2565b915061216b8261212a565b602082019050919050565b6000602082019050818103600083015261218f81612153565b9050919050565b7f4552433732313a207472616e7366657220746f206e6f6e20455243373231526560008201527f63656976657220696d706c656d656e7465720000000000000000000000000000602082015250565b60006121f26032836116b2565b91506121fd82612196565b604082019050919050565b60006020820190508181036000830152612221816121e5565b9050919050565b600061223382611762565b91507fffffffffffffffffffffffffffffffffffffffffffffffffffffffffffffffff82141561226657612265611f10565b5b600182019050919050565b7f4e487b7100000000000000000000000000000000000000000000000000000000600052601260045260246000fd5b60006122ab82611762565b91506122b683611762565b9250826122c6576122c5612271565b5b828204905092915050565b60006122dc82611762565b91506122e783611762565b9250826122f7576122f6612271565b5b828206905092915050565b7f4e487b7100000000000000000000000000000000000000000000000000000000600052603260045260246000fd5b7f4552433732313a206d696e7420746f20746865207a65726f2061646472657373600082015250565b60006123676020836116b2565b915061237282612331565b602082019050919050565b600060208201905081810360008301526123968161235a565b9050919050565b7f4552433732313a20746f6b656e20616c7265616479206d696e74656400000000600082015250565b60006123d3601c836116b2565b91506123de8261239d565b602082019050919050565b60006020820190508181036000830152612402816123c6565b9050919050565b600081519050919050565b600082825260208201905092915050565b600061243082612409565b61243a8185612414565b935061244a8185602086016116c3565b612453816116f6565b840191505092915050565b600060808201905061247360008301876117f7565b61248060208301866117f7565b61248d604083018561190d565b818103606083015261249f8184612425565b905095945050505050565b6000815190506124b981611618565b92915050565b6000602082840312156124d5576124d46115e2565b5b60006124e3848285016124aa565b9150509291505056fea26469706673582212208eb27dad7dceb6e0fb63ee5617a66e12279b806951b0822734d1c479bf3e43ae64736f6c63430008090033",
  "linkReferences": {},
  "deployedLinkReferences": {}
}